:1026F70000A8C0003F065B4F666D7D077F6F00082F
:1027070040014148187021414809496E3F3E386DE4
:1027170079737716102320222016102320222023D6
:102727000625022604250226023108260631022341
:01273700049D
:1015F2005000740011000A000A000A000A000A00E2
:101602000A000A500084000A000A000A000A000ABE
:10161200000A000A000A500094000A000A000A00A8
:101622000A000A000A000A000A5000A4000A000A7E
:10163200000A000A000A000A000A000A46006E00B8
:1016420000000000004200B400000127004200B880
:1016520000004200B60001012D000128000129010D
:0B166200012A8002250000022B00007E
:04146900E4F0A3F018
:10146D009000B9E02401FD9000B8E03400FCD3ED0C
:10147D009407EC6480948040030215F1ED25E0FFA4
:10148D00EC33FE74842FF58274003EF583E0FAA3ED
:10149D00E0640D4A600302154774942FF5827400C1
:1014AD003EF583E0FEA3E0640C4E7047ED25E0FFB2
:1014BD00EC33FE74A42FF58274003EF583E0FAA39D
:1014CD00E0640A4A701374742FF58274003EF5833C
:1014DD00E4F0A37413F00215E9ED25E0FFEC33FE03
:1014ED0074742FF58274003EF583E4F0A37416F046
:1014FD000215E9ED25E0FFEC33FE74A42FF582749F
:10150D00003EF583E0FAA3E0640B4A701374742F68
:10151D00F58274003EF583E4F0A37415F00215E92D
:10152D00ED25E0FFEC33FE74742FF58274003EF56B
:10153D0083E4F0A3740DF00215E9ED25E0FFEC3323
:10154D00FE74942FF58274003EF583E0FAA3E064F7
:10155D000C4A704574A42FF58274003EF583E0FEAD
:10156D00A3E0640B4E7019ED25E0FFEC33FE7474AF
:10157D002FF58274003EF583E4F0A37414F0805CC3
:10158D00ED25E0FFEC33FE74742FF58274003EF50B
:10159D0083E4F0A3740CF08043ED25E0FFEC33FE03
:1015AD0074A42FF58274003EF583E0FAA3E0640B7A
:1015BD004A701274742FF58274003EF583E4F0A323
:1015CD00740BF08017ED25E0FFEC33FE74742FF5EE
:1015DD008274003EF583E4F0A3740AF00DBD0001A2
:0415ED000C02147B5D
:0115F10022D7
:1010F8007F0512266DBF01349000B9E025E0FF900E
:1011080000B8E033FE74742FF58274003EF583E076
:10111800FCA3E0C39412EC9400501174742FF58270
:1011280074003EF583E475F0011207C87F021226A9
:101138006DBF01349000B9E025E0FF9000B8E033BE
:10114800FE74742FF58274003EF583E0FCA3E0D3AF
:101158009410EC9400401174742FF58274003EF5DD
:101168008374FFF5F01207C87F0312266DBF01458F
:101178009000B9E025E0FF9000B8E033FE74742FCA
:10118800F58274003EF583E0FEA3E0FF64104E7024
:101198000890006EF0A3740BF0EF64114E70089085
:1011A8000070F0A3740CF0EF64124E700890007297
:1011B800F0A3740DF07F0112266DEF6401706C903E
:1011C80000B8E0FEA3E0FFC39403EE9400505CEF88
:1011D80025E0FFEE33FE74742FF58274003EF5832C
:1011E800E0FCA3E0FD74762FF58274003EF583ECF5
:1011F800F0A3EDF09000B8E475F0011207DEFEE50B
:10120800F025E0FFEE33FE74742FF58274003EF58E
:1012180083E4F0A3740AF09000B9E02401FE900082
:10122800B8E034009000B6F0A3CEF07F0412266D2B
:10123800EF6401706C9000B8E0FEA3E0FFD3940067
:10124800EE9400405CEF25E0FFEE33FE74742FF55A
:101258008274003EF583E0FCA3E0FD74722FF582F2
:1012680074003EF583ECF0A3EDF09000B874FFF540
:10127800F01207DEFEE5F025E0FFEE33FE74742F72
:10128800F58274003EF583E4F0A3740AF09000B987
:10129800E02401FE9000B8E034009000B6F0A3CE40
:1012A800F0E4FF12266DBF010BE52D7004752D01CA
:0512B80022E4F52D22E7
:10174C00E4FDFC0DED25E0FFEC33FE74842FF582F7
:10175C0074003EF583E0FEA3E0640D4E7067E52D4A
:10176C00640170619000B9E025E0FF9000B8E033AF
:10177C00FE74742FF58274003EF583E0FAA3E0C387
:10178C009412EA9400501174742FF58274003EF593
:10179C0083E475F0011207C89000B9E025E0FF90D2
:1017AC0000B8E033FE74742FF58274003EF583E0CC
:1017BC00FEA3E064124E6003021896900072F0A330
:1017CC00740D021892ED25E0FFEC33FE74942FF5A6
:1017DC008274003EF583E0FEA3E0640C4E702CE5B1
:1017EC002DB401279000B9E025E0FF9000B8E0335C
:1017FC00FE74742FF58274003EF583E4F0A374112B
:10180C00F0900070E4F0A3740C807BED25E0FFEC0D
:10181C0033FE74A42FF58274003EF583E0FEA3E042
:10182C00640B4E7065E52D6401705F9000B9E02586
:10183C00E0FF9000B8E033FE74742FF58274003E24
:10184C00F583E0FAA3E0D39410EA94004011747489
:10185C002FF58274003EF58374FFF5F01207C890E3
:10186C0000B9E025E0FF9000B8E033FE74742FF56A
:10187C008274003EF583E0FEA3E064104E700B9082
:10188C00006EF0A3740BF0752D020DBD00010CED74
:08189C0064084C6003021750C0
:0118A4002221
:10213300E4F530F531FF1227388F30E5276402705C
:10214300030221C5E530640170577527019000B47F
:10215300E0FEA3E0FF7C007D6412073D7C007D0A66
:1021630012073DAB059000B4E0FEA3E0FF7C007DC9
:102173000A12073D7C007D0A12073D8D388B3775A7
:10218300350A75360A9000B4E0FEA3E0FF7C007DBB
:102193000A12073D8D397B0A7D0A7F0A12291A80AC
:1021A30008E530B40203E4F5277F011227388F31A5
:1021B300E531B4010DE5276403600475270322E4C8
:0221C300F527FE
:0121C50022F7
:10003E00753000753101E52760030205DD12146D80
:10004E0090006EE07004A3E0640B60030202279040
:10005E0000B9E02401F5319000B8E03400F530D35A
:10006E00E5319407E530648094805068E53125E0F1
:10007E00FFE53033FE74A42FF58274003EF583E065
:10008E00FEA3E0640B4E70429000B6E0FEA3E0FFCC
:10009E00B53137EEB530339000B5E004F070069010
:1000AE0000B4E004F0EF25E0FFEE33FE74A42FF56C
:1000BE008274003EF583E4F0A3740AF07D147C0094
:1000CE007FE87E031223ED0201FB0531E531708FCF
:1000DE000530808B9000B7E025E0FF9000B6E0334E
:1000EE00FE74742FF58274003EF583E0FCA3E0FDF0
:1000FE0064134C70259000B675F0011207DEFEE514
:10010E00F025E0FFEE33FE74742FF58274003EF599
:10011E0083E4F0A37416F00201C0ED640D4C70245C
:10012E009000B675F0011207DEFEE5F025E0FFEE59
:10013E0033FE74742FF58274003EF583E4F0A374DD
:10014E0015F0806E9000B7E025E0FF9000B6E0332A
:10015E00FE74742FF58274003EF583E0FEA3E06416
:10016E000C4E70249000B675F0011207DEFEE5F01D
:10017E0025E0FFEE33FE74742FF58274003EF58396
:10018E00E4F0A37414F0802A90006EE0FCA3E0FD6E
:10019E009000B6E475F0011207DEFEE5F025E0FFF3
:1001AE00EE33FE74742FF58274003EF583ECF0A3EB
:1001BE00EDF0900074A3E0FFA3A3E0FDA3A3E0FB8A
:1001CE00A3A3E0F535A3A3E0F536A3A3E0F537A38B
:1001DE00A3E0F538A3E0F8A3E0F53912291AC3908D
:1001EE0000B7E094089000B6E09400402C9000B95F
:1001FE00E02401FE9000B8E034009000B6F0A3CEEB
:10020E00F090006E12146990006EE07002A3E07020
:10021E0008E52DB40203752D01900070E07004A363
:10022E00E0640C60030204009000B9E02401F53193
:10023E009000B8E03400F530D3E5319407E5306432
:10024E008094805068E53125E0FFE53033FE7494EC
:10025E002FF58274003EF583E0FEA3E0640C4E7031
:10026E00429000B6E0FEA3E0FFB53137EEB5303375
:10027E009000B5E004F070069000B4E004F0EF25B5
:10028E00E0FFEE33FE74942FF58274003EF583E4A6
:10029E00F0A3740AF07D147C007FE87E031223ED38
:1002AE000203D40531E531708F0530808B9000B795
:1002BE00E025E0FF9000B6E033FE74742FF58274F3
:1002CE00003EF583E0FCA3E0FD64154C7025900024
:1002DE00B675F0011207DEFEE5F025E0FFEE33FE07
:1002EE0074742FF58274003EF583E4F0A37416F057
:1002FE00020399ED640D4C70249000B675F0011256
:10030E0007DEFEE5F025E0FFEE33FE74742FF58276
:10031E0074003EF583E4F0A37413F0806E9000B782
:10032E00E025E0FF9000B6E033FE74742FF5827482
:10033E00003EF583E0FEA3E0640B4E70249000B601
:10034E0075F0011207DEFEE5F025E0FFEE33FE74D8
:10035E00742FF58274003EF583E4F0A37414F080DC
:10036E002A900070E0FCA3E0FD9000B6E475F00169
:10037E001207DEFEE5F025E0FFEE33FE74742FF576
:10038E008274003EF583ECF0A3EDF0900074A3E0D0
:10039E00FFA3A3E0FDA3A3E0FBA3A3E0F535A3A376
:1003AE00E0F536A3A3E0F537A3A3E0F538A3E0F814
:1003BE00A3E0F53912291AC39000B7E09408900013
:1003CE00B6E09400402C9000B9E02401FE9000B8F5
:1003DE00E034009000B6F0A3CEF0900070121469D5
:1003EE00900070E07002A3E07008E52DB402037572
:1003FE002D01900072E07004A3E0640D600302050D
:10040E00DD9000B9E02401F5319000B8E03400F53C
:10041E0030D3E5319407E530648094805068E5313F
:10042E0025E0FFE53033FE74842FF58274003EF52F
:10043E0083E0FEA3E0640D4E70429000B6E0FEA392
:10044E00E0FFB53137EEB530339000B5E004F07013
:10045E00069000B4E004F0EF25E0FFEE33FE748466
:10046E002FF58274003EF583E4F0A3740AF07D1438
:10047E007C007FE87E031223ED0205AD0531E531E8
:10048E0070020530808B9000B7E025E0FF9000B63B
:10049E00E033FE74742FF58274003EF583E0FCA306
:1004AE00E0FD64144C70259000B675F0011207DE65
:1004BE00FEE5F025E0FFEE33FE74742FF582740036
:1004CE003EF583E4F0A37416F0020572ED640C4C55
:1004DE0070249000B675F0011207DEFEE5F025E0FF
:1004EE00FFEE33FE74742FF58274003EF583E4F054
:1004FE00A37413F0806E9000B7E025E0FF9000B675
:10050E00E033FE74742FF58274003EF583E0FEA393
:10051E00E0640B4E70249000B675F0011207DEFEFB
:10052E00E5F025E0FFEE33FE74742FF58274003E85
:10053E00F583E4F0A37415F0802A900072E0FCA31A
:10054E00E0FD9000B6E475F0011207DEFEE5F02541
:10055E00E0FFEE33FE74742FF58274003EF583ECEB
:10056E00F0A3EDF0900074A3E0FFA3A3E0FDA3A31E
:10057E00E0FBA3A3E0F535A3A3E0F536A3A3E0F5D6
:10058E0037A3A3E0F538A3E0F8A3E0F53912291A52
:10059E00C39000B7E094089000B6E094004030900D
:1005AE0000B9E02401FE9000B8E034009000B6F0EF
:1005BE00A3CEF0E4900072F0A3F012146D900072CE
:1005CE00E07002A3E07008E52DB40203752D01E57D
:0705DE002DB4010312174CBC
:0105E50022F3
:101C1E00E5276003021CAD900074A3E0FFA3A3E0D0
:101C2E00FDA3A3E0FBA3A3E0F535A3A3E0F536A344
:101C3E00A3E0F537A3A3E0F538A3E0F8A3E0F53968
:101C4E0012291A0526E526AE257002052514FF7CFD
:101C5E00007D07120792ED4C7045E529B4012990DD
:101C6E00006EE07004A3E0640B6018900070E070EA
:101C7E0004A3E0640C600C900072E07004A3E064B6
:101C8E000D701C7529028017E52A7008752A80755B
:101C9E0029018006E52AC313F52AAF2A122A0DE57B
:101CAE00276402702975350A75361A753718753816
:101CBE001B75391C7B197D187F1712291AE52870A0
:101CCE000D7D28FC7FE87E031223ED752801C3905D
:101CDE0000B5E094199000B4E09400403C75350ACC
:101CEE0075361D75371E75381B75391B7B197D189A
:101CFE007F1712291A752704E528701D7BFF7A2796
:101D0E007926F5357536127537F07DFA7F5A12241D
:0A1D1E00DC7F011228AA75280122BB
:1029720012000378307C007D007E007F0A1206B6CA
:0629820085362385372491
:01298800222C
:100C5C00753000753101AF24AE2312261BE52760D9
:100C6C0003020ECA052CE52CAE2B7002052B14FFCB
:0E0C7C007C007D02120792ED4C6003020DA574
:100C8A001225D97C007D071207928C328D331225EA
:100C9A00D97C007D03120792ED2405F535E43CF575
:100CAA0034E5326003020DA5E533B40700400302C0
:100CBA000DA5900CC3F8282873020CD8020CE30285
:100CCA000CFF020D0B020D26020D51020D6CE535CB
:100CDA0025E0FFE53433FE805CE53525E0FFE534A9
:100CEA0033FE74942FF58274003EF583E4F0A37406
:100CFA000CF0020DA5E53525E0FFE53433FE020DC3
:100D0A0095E53525E0FFE53433FE74A42FF58274AA
:100D1A00003EF583E4F0A3740BF08019E53525E075
:100D2A00FFE53433FE74942FF58274003EF583E4B4
:100D3A00F0A3740CF074842FF58274003EF583E4FA
:100D4A00F0A3740DF08054E53525E0FFE53433FE59
:100D5A0074942FF58274003EF583E4F0A3740CF0CA
:100D6A008029E53525E0FFE53433FE74842FF582CA
:100D7A0074003EF583E4F0A3740DF074942FF582A9
:100D8A0074003EF583E4F0A3740CF074A42FF5828A
:0B0D9A0074003EF583E4F0A3740BF03E
:100DA500AE2BAF2C7C007D02120792ED4C60030246
:100DB5000E749000B8E0F530A3E0F531C3E5319449
:100DC50007E53064809480506DE53125E0FFE5301E
:100DD50033FE74862FF58274003EF583E0FCA3E0B4
:100DE500FD74842FF58274003EF583ECF0A3EDF0DD
:100DF50074962FF58274003EF583E0FCA3E0FD7444
:100E0500942FF58274003EF583ECF0A3EDF074A603
:100E15002FF58274003EF583E0FCA3E0FD74A42F5A
:100E2500F58274003EF583ECF0A3EDF00531E53174
:100E3500708A05308086E53125E0FFE53033FE74A4
:100E4500842FF58274003EF583E4F0A3740AF074F0
:100E5500942FF58274003EF583E4F0A3740AF074D0
:100E6500A42FF58274003EF583E4F0A3740AF09094
:100E750000B9E025E0FF9000B8E033FE74842FF55B
:100E85008274003EF583E0FCA3E0640A4C70337481
:100E9500942FF58274003EF583E0FEA3E0640A4ECC
:100EA50070209000B9E025E0FF9000B8E033FE74B3
:100EB500A42FF58274003EF583E0FEA3E0640A4E9C
:050EC500600375270227
:010ECA002205
:100ECB00E52EB401349000B9E025E0FF9000B8E0C6
:100EDB0033FE74742FF58274003EF583E0FCA3E0BF
:100EEB00C39412EC9400501174742FF58274003E6D
:100EFB00F583E475F0011207C8E52EB402349000B7
:100F0B00B9E025E0FF9000B8E033FE74742FF58252
:100F1B0074003EF583E0FCA3E0D39410EC94004006
:100F2B001174742FF58274003EF58374FFF5F01283
:100F3B0007C8E52EB403459000B9E025E0FF90000B
:100F4B00B8E033FE74742FF58274003EF583E0FE37
:100F5B00A3E0FF64104E700890006EF0A3740BF0CA
:100F6B00EF64114E7008900070F0A3740CF0EF64F6
:100F7B00124E7008900072F0A3740DF0E52E64040D
:100F8B00706C9000B8E0FEA3E0FFC39403EE9400F6
:100F9B00505CEF25E0FFEE33FE74742FF582740086
:100FAB003EF583E0FCA3E0FD74762FF58274003EE2
:100FBB00F583ECF0A3EDF09000B8E475F0011207A7
:100FCB00DEFEE5F025E0FFEE33FE74742FF5827440
:100FDB00003EF583E4F0A3740AF09000B9E024011D
:100FEB00FE9000B8E034009000B6F0A3CEF0E52EF2
:100FFB006405706C9000B8E0FEA3E0FFD39400EEA4
:10100B009400405CEF25E0FFEE33FE74742FF58205
:10101B0074003EF583E0FCA3E0FD74722FF582743F
:10102B00003EF583ECF0A3EDF09000B874FFF5F003
:10103B001207DEFEE5F025E0FFEE33FE74742FF5AC
:10104B008274003EF583E4F0A3740AF09000B9E0DB
:10105B002401FE9000B8E034009000B6F0A3CEF06F
:10106B00E52764026076E52EB4060BE52764036082
:10107B00687527038066E52E64077060E5276401B9
:10108B0060577527019000B4E0FEA3E0FF7C007D64
:10109B006412073D7C007D0A12073DAB059000B43E
:1010AB00E0FEA3E0FF7C007D0A12073D7C007D0A79
:1010BB0012073D8D388B3775350A75360A9000B49B
:1010CB00E0FEA3E0FF7C007D0A12073D8D397B0A11
:1010DB007D0A7F0A12291A8003E4F527E52EB4084E
:0D10EB000BE52D7004752D0122E4F52D227A
:101EFE0012295712293A1228FA1229897F98122785
:101F0E00F57F607E097D007C00122465E4FF122AB5
:101F1E000D75350075360075372E7538007539011B
:101F2E007B007A00792E7D027C001228267F01121A
:101F3E0028AA7BFF7A27791A75350075360C753706
:101F4E00F07DFA7FC81224DC7BFF7A0E79CB7F09F5
:101F5E001223707BFF7A2179337F041223707BFF6B
:101F6E007A1079F87F071223707BFF7A2979727FB6
:101F7E00081223707BFF7A1C791E7F011223707B5F
:101F8E00FF7A00793E7F021223707BFF7A0C795C18
:101F9E007F031223707D07E4FF1229E512146D9062
:101FAE000074A3E0FFA3A3E0FDA3A3E0FBA3A3E0C3
:101FBE00F535A3A3E0F536A3A3E0F537A3A3E0F52B
:101FCE0038A3E0F8A3E0F53912291A122A131227C2
:031FDE00B780FBCE
:0929DC008B88898C88898F888919
:10166D005200C6868600868600868600868600869F
:09167D0086008686004100BB09CD
:03002B00022A079F
:062A070053BCEFD20F32B8
:0212BD00153DDD
:1012BF00200F03021466C20F9000BAE0B409004079
:1012CF00030214489012DAF828287302132102122D
:1012DF00F50213070213330212F502130702134A22
:1012EF000212F5021307AFBDEFFEADBE7C00E42D79
:1012FF00FFEC3E9000BC803CAFBDEFFEADBE7C006E
:10130F00E42DFFEC3E9000BEF0A3EFF0751E01023E
:10131F00144EAFBDEFFEADBE7C00E42DFFEC3E9052
:10132F0000C08010AFBDEFFEADBE7C00E42DFFEC22
:10133F003E9000C2F0A3EFF002144EAFBDEFFEAD32
:10134F00BE7C00E42DFFEC3E9000C4F0A3EFF090C4
:10135F0000C4E0FEA3E07807CEC313CE13D8F9A8DC
:10136F003DF6C394065013A83DE675F003A424C6BA
:10137F00F582E43400F583E014F09000BBE014F044
:10138F00600302144E7409F0A83DE4F6A83DE6FF91
:10139F00C39406400302144EEF75F003A424C6F560
:1013AF0082E43400F583E0C39480502AE6FF75F0A1
:1013BF0003A424C7F582E43400F583E0D39480407E
:1013CF0040EF75F003A424C8F582E43400F583746C
:1013DF0001F0F51F802BA83DE6FF75F003A424C78D
:1013EF00F582E43400F583E0C394805014EF75F078
:1013FF0003A424C8F582E43400F5837402F0751F4A
:10140F0001A83DE6FF75F003A424C6F582E434007D
:10141F00F583E0FEEF75F003A424C7F582E43400F2
:10142F00F583EEF0E675F003A424C6F582E43400EC
:10143F00F5837486F00602139B9000BA74FFF09048
:10144F0000BAE0D39407400374FFF09000BAE004B1
:07145F00F09029DC93F5BCBD
:03146600053D221F
:0229A700153DDC
:0929A900A83DA61FE4F51FE6FF9E
:0329B200053D22BE
:0229B500153DCE
:0929B700A83DA61EE4F51EE6FF92
:0329C000053D22B0
:1027F5008F9D75BC88439720D2AD90004574FFF03E
:10280500A37412F0A374BDF0A374FFF0A37429F0B0
:10281500A374A7F0A374FFF0A37429F0A374B5F013
:012825002290
:070003007B017A0079BC22A9
:10266D00C3EF64809480403BD3EF648094855033F6
:10267D00EFFD3395E0FC9000C875F003ED120954A1
:10268D00EC75F003A42583F583E0FE9000C875F08A
:10269D0003ED120954EC75F003A42583F583E4F0E2
:0526AD00AF06227F03CF
:0126B2002205
:04288200153D153DAE
:102886001229EEA83DA60608A607A83DE6FE08E61C
:0F289600FF4E600BEF24FFFFEE34FFFE1229F719
:0528A500053D053D2288
:1028FA0053B1EF43B210120026E4F5D975DA49D282
:10290A00DE90003F74FFF0A37428F0A37482F022D3
:0823ED008E368F378C388D39D4
:1023F5001229EEEF4E7066AF39AE381229F7C3E5F4
:1024050037940AE5369400404BE47B18FAF9F890C6
:1024150026F712093812087FC006C007AE36AF3757
:10242500AB07AA06E4F9F8D007D00612087FAB0778
:10243500AA06AFF9EFFEADE97C00E42DFFEC3ECF37
:102445002BCF3AAD07FCAF03AE0212000ED2D84334
:0F245500DA01800612002653DAFE7F02227F038F
:012464002255
:0C002E001229EEEF4E7002FF227F01222B
:101E1500E4F580900108E0FFB40800505F901E29AA
:101E2500F8282873021E41021E47021E4D021E534A
:101E3500021E59021E63021E6D021E77C2A3C2A2B4
:101E45008016C2A3C2A2801AC2A3C2A2801EC2A3C8
:101E5500C2A28022C2A3D2A2C2A1C2A08020C2A3D4
:101E6500D2A2C2A1D2A08016C2A3D2A2D2A1C2A0E0
:101E7500800CC2A3D2A2D2A1D2A08002D2A3C3EF6A
:101E8500648094885029900108E0FF3395E0FE7442
:101E9500FF2FF58274003EF583E0FF3395E0FE7475
:101EA500FB2FF58274263EF583E493F580801E9022
:101EB5000108E0FFB408133395E0FE74FF2FF582A7
:101EC50074003EF583E0F5808003E4F5809000FE24
:101ED500E0FF900108E004FEF0D3EF6480F8EE64C3
:101EE50080984014E0D36480948850047408F022EC
:091EF5009000FDE0900108F022CC
:10295700E4F5937594FF5395F043960F90002A740E
:0B296700FFF0A3741EF0A37415F02213
:0929E5009000FDEFF0A3EDF022DB
:10291A009000FFEFF0A3EDF0A3EBF0A3E535F0A3F1
:10292A00E536F0A3E537F0A3E538F0A3E539F02260
:062A0D00900107EFF0222A
:10168600013C0049010A949400949400949400410A
:0316960001091E29
:021AFB00153D97
:101AFD0020B20690010AE014F020B30690010DE02B
:101B0D0014F0209706900110E014F0900109E014F4
:101B1D00F06003021C1B741EF0A83DE4F6A83DE620
:101B2D00FFC3648094834003021C1BEF3395E0FEDA
:101B3D0090010A75F003EF120954EE75F003A42518
:101B4D0083F583E0C39480503990010B75F003EF5A
:101B5D00120954EE75F003A42583F583E0D3948028
:101B6D00405AE6FF3395E0FE90010C75F003EF123D
:101B7D000954EE75F003A42583F5837401F0F53C4B
:101B8D00803AA83DE6FF3395E0FE90010B75F0031A
:101B9D00EF120954EE75F003A42583F583E0C39489
:101BAD0080501990010C75F003EF120954EE75F089
:101BBD0003A42583F5837402F0753C01A83DE6FF6F
:101BCD00FD3395E0FC90010A75F003ED120954EC1C
:101BDD0075F003A42583F583E0FE90010B75F003EA
:101BED00ED120954EC75F003A42583F583EEF0EFA7
:101BFD003395E0FE90010A75F003EF120954EE756E
:0E1C0D00F003A42583F5837494F006021B2ACD
:031C1B00053D2262
:0229C300153DC0
:0929C500A83DA63CE4F53CE6FF48
:0329CE00053D22A2
:10293A0090003074FFF0A37429F0A374C3F09000E0
:0D294A002D74FFF0A3741AF0A374FBF022AB
:10273800EF600764016003BF0233EFFD3395E0FCEF
:1027480090010C75F003ED120954EC75F003A42503
:1027580083F583E0FE90010C75F003ED120954EC4B
:0F27680075F003A42583F583E4F0AF06227F0309
:01277700223F
:101699004100000A4100290A41006D0A040E0000B8
:1016A90000000114004600670000FFFF8FFFC10D15
:1016B900C105C108C101C10E60240005FF000AFF70
:1016C900000AFF000AFF000AFF000AFF000AFF00E4
:1016D9000AFF000AFF000AFF000AFF000AFF000ACA
:1016E9006036002AFF000AFF000AFF001FFF000AF8
:1016F900FF001FFF000AFF001FFF000AFF000AFF8B
:10170900000AFF001FFF001FFF001FFF001FFF004F
:0A1719000AFF000AFF000AFF000AA1
:01000A0022D3
:03001F007F00223D
:10262600438E805389F07BE07A28790178009026E2
:10263600F71209381226B3EFF404F58A7BE07A28FC
:10264600790178009026F71209381226B3C3E49F61
:10265600FFE49EFE74019DFDE49CFC7808120924AB
:072666008F8CD28CD2A92257
:03000B0002258744
:04258700C0E0C0D020
:10258B00D5080A75084C300D020514D20DA2037242
:10259B00045036150AE50A7030850C0AD207300A4A
:1025AB0017E50D6007150D438F01801D538FFEC27C
:1025BB00B5D51615C20A8011050BE50BD394064051
:0925CB0008C203E5136002D20608
:0525D400D0D0D0E03280
:10253400300E47C20E9026F712093878101209247B
:102544008E3A8F3B900003E0FEA3E0FFE4FCFD7BAA
:1025540019FAF9F81207F4C006C007AE3AAF3BAB5C
:1025640007AA06E4F9F8D007D0061226B3780312B6
:102574000924900065EEF0A3EFF0900065E0FEA35F
:02258400E0FF76
:012586002232
:0929EE00900067E0FEA3E0FF2267
:0929F700900067EEF0A3EFF0225E
:10000E0090006BEEF0A3EFF0900069ECF0A3EDF032
:01001E0022BF
:03002600C2B4223F
:03003B0002208B15
:10208B00C0E0C083C082C0D075D000C004C005C002
:03209B0006C00775
:10209E0030DF04C2DF807D30DA04C2DA807630D9D8
:1020AE003DC2D9AFFBEFFEADEB7C00E42DFFEC3E65
:1020BE0020000E900001F0A3EFF075DB11D200802E
:1020CE0053FE900001E0FCA3E0FDC3EF9DFFEE9CEC
:1020DE00A3F0A3EFF075DB00C200D20E803630D82D
:1020EE0033C2D8900067E07002A3E06022B2B490D1
:1020FE000069E0FEA3E0F5EAEEF5FAA3E0FEA3E048
:10210E00FF90006AE02FF0900069E03EF08005C27B
:04211E00B453DAFEDE
:10212200D007D006D005D004D0D0D082D083D0E062
:01213200327A
:062A1300122626D2AF22BC
:1022E5003004047F0180027F00200A047E01800201
:1022F5007E00EE5F6074E515C395095068300236BF
:10230500750D01E515131313541FAB17AA18A91959
:10231500F5827583001206DCFFE515540704FEEF10
:10232500A806088002C333D8FC30D705751603808C
:102335002F751601802AAB17AA18A91975F002E5A1
:1023450015A4F58285F0831206DCF50DE51575F00B
:1023550002A429F9EA35F0FA9000011206DCF51617
:0A2365000515D20A22C204438F10AE
:01236F00224B
:101D2800900000E014F0701F740AF0D205900029AA
:101D3800E014F07012740AF0D20890006DE014F00C
:101D48007005740AF0D20190002AA3E0FAA3E0F922
:101D580012096090002DA3E0FAA3E0F9120960903F
:101D68000039A3E0FAA3E0F9120960900045A3E066
:101D7800FAA3E0F9120960900054A3E0FAA3E0F98D
:101D880012096090005DA3E0FAA3E0F912096090DF
:101D9800004BA3E0FAA3E0F9120960EF600C900091
:101DA8001DA3E0FAA3E0F912096090004EA3E0FA3F
:101DB800A3E0F9120960EF600E900020A3E0FAA3F7
:101DC800E0F9120960D20BE512D394004016D5123F
:101DD8003030090C900023A3E0FAA3E0F91209605F
:101DE800D20C801D900051A3E0FAA3E0F91209601B
:101DF800EF600E900023A3E0FAA3E0F9120960D285
:0D1E08000C900005A3E0FAA3E0F9020960C8
:1021C60090003FA3E0FAA3E0F9120960900042A351
:1021D600E0FAA3E0F9120960900033A3E0FAA3E065
:1021E600F9120960900008A3E0FAA3E0F912096069
:1021F600900030A3E0FAA3E0F9120960EF600C90BA
:102206000011A3E0FAA3E0F9120960900036A3E0FA
:10221600FAA3E0F9120960EF600C900017A3E0FA48
:10222600A3E0F9120960900048A3E0FAA3E0F912CE
:102236000960EF600C90001AA3E0FAA3E0F9120916
:102246006030060EC206900026A3E0FAA3E0F9125B
:03225600096022FA
:1027780090000BA3E0FAA3E0F912096090003CA3D3
:10278800E0FAA3E0F9120960EF600C900014A3E0EE
:10279800FAA3E0F9120960900057A3E0FAA3E0F960
:0F27A80012096090005AA3E0FAA3E0F902096059
:10285700AF11AE10AD0FAC0E90006012094890009A
:1028670064E514F0E4F511F510F50FF50EF5149085
:0B287700000EA3E0FAA3E0F9020960E4
:1027B700300705C2071222E5300D05C20D121D288C
:1027C700300505C2051221C6300805C20812277850
:1027D700300105C201122857E5112401F511E4352E
:0E27E70010F510E4350FF50FE4350EF50E2257
:102370008B308A318932EFB40C005070902383F88F
:102380002828730223A70223AC0223B10223B6023A
:1023900023BB0223C00223C50223CA0223CF022388
:1023A000D40223D90223DE900005803590000880F6
:1023B0003090000B802B90000E8026900011802121
:1023C000900017801C900014801790001A801290C3
:1023D000001D800D90002080089000238003900055
:0D23E00026E530F0A3E531F0A3E532F02250
:072A00007B017A00796022DE
:1019D50000C400DC00F701060126014A01720188F6
:1019E50001B801EE020B024B029302E403100370EF
:1019F50003DC04160497052605C800DC00F701156D
:101A05000126014A0172019F01B801EE022A024B2B
:101A1500029302E4033F037003DC04550497052693
:101A250005C8067D00F701150137014A0172019FBE
:101A350001D201EE022A026E029302E4033F03A4DF
:101A450003DC045504DD057505C8067D0749010657
:101A55000126014A015D018801B801EE020B024B26
:101A6500029302BA0310037003DC041604970526DB
:101A75000575062006E007B80126014A01720188AE
:101A850001B801EE022A024B029302E4031003702F
:101A950003DC04550497052605C8062006E007B8AB
:101AA50008AA014A0172019F01B801EE022A026EDD
:101AB500029302E4033F037003DC045504DD0526AD
:101AC50005C8067D06E007B808AA09B9015D0188C1
:101AD50001B801D2020B024B029302BA0310037044
:101AE50003A40416049705260575062006E0074994
:061AF500082D092D0A4D29
:101723004D00F00300000000000000000000000076
:061FE1008F308D318B32C0
:101FE70012002EEF60037F0122E532D394004006F2
:101FF700E53294114028E532D394174006E5329430
:1020070021401BE532D394274006E5329431400E38
:10201700E532D394375007E530C394F950037F0373
:1020270022E532603DC4540F75F007A4FDACF0E51E
:102037003075F015A42DFFE5F03CFEE53254077C22
:10204700002FFFEC3EFEEF25E0FFEE33FE74EB2F93
:10205700F58274F03EF583E493F534740193F53516
:102067008005E4F534F535AF337E007C017D7712CA
:10207700072BAD311C12073DAD07AC06AF35AE34AB
:032087001223ED34
:01208A002233
:04096600153D153DE9
:10096A0012002EEF70047F0180027F009000F0E0F9
:10097A00FEB402047D0180027D00ED5F6003020C7B
:10098A0057EEB4030AE49000EEF0A3F0020C57907D
:10099A0000F1E0FFB4F3047E0180027E00EFB4F1BF
:1009AA00047F0180027F00EF4E603E9000F3E0FE7C
:1009BA0075F06484FFEE75F00A8475F00A84ADF070
:1009CA00E075F00A84ABF075350A9000F2E024076E
:1009DA00F5369000EDE0FEC4540F240AF537753859
:1009EA000AEE5407F53912291A9000F1E0FFB4F320
:1009FA00047E0180027E00EFB4F2047F0180027F50
:100A0A0000EF4E7003020AB09000F3E0FD7C007E16
:100A1A00177F7012073DA83DA607E6F975F002A4F4
:100A2A00FFC39000FCE09F9000FBE095F05070E05F
:100A3A00FEA3E0FF7C007D0B12072BE9FBFD1207EA
:100A4A003DA83D08A6079000FBE475F0011207DEF9
:100A5A00FED3E5F09BEE94004018A83D08E624F981
:100A6A00FFE47EF0A807088005CEC313CE13D8F999
:100A7A00801FA83D08E6FF740F7E00A807088005BE
:100A8A00C333CE33CED8F97804CEA2E713CE13D827
:100A9A00F8A83D08F6A83D08E6FF122A0D8007E4EB
:100AAA009000FBF0A3F09000F7E0FEA3E0FFC390F4
:100ABA0000FAE09F9000F9E09E4003020C511200F8
:100ACA002EEF6003020C579000F4E0FBA3E0FAA3B8
:100ADA00E0F99000F9E0FEA3E0F5828E831206DCCD
:100AEA00FFD394375003020BECEF241024FC507907
:100AFA00604524FE7003020B97147003020BAD24A9
:100B0A00026003020BDB9000F4E0FBA3E0FAA3E02F
:100B1A00F99000F9E475F0011207C885F082F583AF
:100B2A001206DC9000F2F09000FAE004F07098905F
:100B3A0000F9E004F080909000F4E0FBA3E0FAA34F
:100B4A00E0F99000F9E475F0011207C885F082F522
:100B5A00831206DC9000F3F09000FAE004F0706E65
:100B6A009000F9E004F0020AD19000F4E0FBA3E05F
:100B7A00FAA3E0F99000F9E475F0011207DE85F0B6
:100B8A0082F5831206DC9000F1F0020AD19000F996
:100B9A00E475F0011207C8AFF09000EEF0A3EFF091
:100BAA00020AD19000EEE0FEA3E0FF4E6012900030
:100BBA00F9EEF0A3EFF0E49000EEF0A3F0020AD110
:100BCA009000FAE004F070069000F9E004F0020ADE
:100BDA00D19000FAE004F070069000F9E004F00207
:100BEA000AD19000F7E0FEA3E0FFC39000FAE09F6D
:100BFA009000F9E09E50569000F4E0FBA3E0FAA3BF
:100C0A00E0F99000F9E475F0011207DE85F082F54B
:100C1A00831206DC9000EDF09000F2E0FFA3E0FD05
:100C2A00A3E0FBA3E0FAA3E0F99000F9E475F00170
:100C3A001207DE85F082F5831206DCF5339000EDAB
:0D0C4A00E0FB121FE180069000F07403F043
:050C5700053D053D22F2
:0F29890090004274FFF0A37409F0A37466F0226B
:1024DC009000F0E0B4030DE49000F9F0A3F0A3F049
:1024EC00A3F0C210EF60049000F3F0ED60049000D4
:1024FC00F2F0E94A60047F0180027F00E536453541
:10250C0060047E0180027E00EE5F60139000F4EBAD
:10251C00F0A3EAF0A3E9F0A3E535F0A3E536F0E586
:08252C003760049000F1F02279
:1028AA00BF02047E0180027E00BF01047D01800216
:1028BA007D00ED4EFEBF03047D0180027D00ED4EDA
:0828CA0060059000F0EFF02220
:062A19009000F0E0FF2236
:101733005500D80000000000000000000000000079
:0817430000000100000000009D
:030023000218A51B
:1018A500C0E0C0F0C083C082C0D075D000C000C009
:1018B50001C002C003C004C005C006C00730993B83
:1018C500C2999000DDE0FEA3E0FFC39000DCE09F3D
:1018D5009000DBE09E501F9000D8E0FBA3E0FAA348
:1018E500E0F9A3E475F0011207DE85F082F58312B5
:1018F50006DCF59980059000DFE4F02098030219D5
:10190500BAC298300B09C20B9000E5E4F0A3F09041
:1019150000E3E0FEA3E0FFA3E0FCA3E0FDC39FEC32
:101925009E50779000E0E0FBA3E0FAA3E0F98D82FA
:101935008C83E5991207099000EBE0FEA3E0FFC355
:10194500ED9FEC9E50469000E3E0FCA3E0FDEF9D8B
:10195500EE9C50389000E8E0FBA3E0FAA3E0F99094
:1019650000E5E0FEA3E0FFF5828E831206DCFD9024
:1019750000E0E0FBA3E0FAA3E0F98F828E83120674
:10198500DC6D60089000E574FFF0A3F09000E6E0E0
:1019950004F070069000E5E004F09000E3E0FEA39B
:1019A500E0FFC39000E6E09F9000E5E09E400690D2
:1019B50000E77401F0D007D006D005D004D003D0DD
:1019C50002D001D000D0D0D082D083D0F0D0E03288
:02299800153DEB
:0A299A009000E7E0A83DF6FFE4F02E
:0329A400053D22CC
:102465008F338E328D318C30759850438E40538E1C
:10247500FE53890FE47B04FAF9F89026F712093820
:1024850012087FAB33AA32A931A83012087FEFF4C6
:1024950004F58BE47B04FAF9F89026F71209381253
:1024A500087FAB33AA32A931A83012087FC3E49F55
:1024B500FFE49EFE74019DFDE49CFC780812091161
:1024C5008F8DC2ABD28ED2AC90004E74FFF0A37448
:0724D50029F0A37498F02226
:102826009000E0EBF0A3EAF0A3E9F0A3ECF0A3ED4F
:10283600F09000EBE538F0A3E539F09000E8E535D7
:10284600F0A3E536F0A3E537F0D20BE49000E7F00D
:01285600225F
:1028D2009000DFE0701F9000D8EBF0A3EAF0A3E9CC
:1028E200F0E4A3F0A3F0A3ECF0A3EDF0A37401F0E5
:0828F200D2997F02227F03222C
:0B29D1009000DFE07002FF227F012277
:0300000002225980
:0C225900787FE4F6D8FD75813D0222A0DC
:1005E600E709F608DFFA8046E709F208DFFA803EF7
:1005F60088828C83E709F0A3DFFA8032E309F608E4
:10060600DFFA8078E309F208DFFA807088828C834B
:10061600E309F0A3DFFA806489828A83E0A3F608FF
:10062600DFFA805889828A83E0A3F208DFFA804CD9
:1006360080D280FA80C680D4806980F280338010B0
:1006460080A680EA809A80A880DA80E280CA803319
:1006560089828A83ECFAE493A3C8C582C8CCC58391
:10066600CCF0A3C8C582C8CCC583CCDFE9DEE78061
:100676000D89828A83E493A3F608DFF9ECFAA9F0E0
:10068600EDFB2289828A83ECFAE0A3C8C582C8CC36
:10069600C583CCF0A3C8C582C8CCC583CCDFEADE4F
:1006A600E880DB89828A83E493A3F208DFF980CCB1
:1006B60088F0EF60010E4E60C388F0ED2402B404AA
:1006C6000050B9F582EB2402B4040050AF23234551
:0606D6008223900636733A
:1006DC00BB010CE58229F582E5833AF583E02250D3
:1006EC0006E92582F8E622BBFE06E92582F8E2221D
:0D06FC00E58229F582E5833AF583E4932237
:10070900F8BB010DE58229F582E5833AF583E8F026
:10071900225006E92582C8F622BBFE05E92582C8D2
:02072900F222BA
:10072B00EF8DF0A4A8F0CF8CF0A428CE8DF0A42EE2
:02073B00FE229C
:10073D00BC000BBE0029EF8DF084FFADF022E4CCA0
:10074D00F875F008EF2FFFEE33FEEC33FCEE9DEC69
:10075D00984005FCEE9DFE0FD5F0E9E4CEFD22EDAF
:10076D00F8F5F0EE8420D21CFEADF075F008EF2FF9
:10077D00FFED33FD4007985006D5F0F222C398FDEA
:05078D000FD5F0EA2287
:10079200C2D5EC30E709B2D5E4C39DFDE49CFCEE82
:1007A20030E715B2D5E4C39FFFE49EFE12073DC3B6
:1007B200E49DFDE49CFC800312073D30D507C3E4B1
:0607C2009FFFE49EFE22F1
:1007C800C5F0F8A3E028F0C5F0F8E58215827002BC
:0607D8001583E038F02259
:1007DE00A3F8E0C5F025F0F0E582158270021583CE
:0607EE00E0C838F0E8222B
:1007F400E88FF0A4CC8BF0A42CFCE98EF0A42CFCA4
:100804008AF0EDA42CFCEA8EF0A4CDA8F08BF0A421
:100814002DCC3825F0FDE98FF0A42CCD35F0FCEB80
:100824008EF0A4FEA9F0EB8FF0A4CFC5F02ECD3945
:0F083400FEE43CFCEAA42DCE35F0FDE43CFC22B2
:1008430075F008758200EF2FFFEE33FECD33CDCC6C
:1008530033CCC58233C5829BED9AEC99E5829840EF
:100863000CF582EE9BFEED9AFDEC99FC0FD5F0D6CC
:10087300E4CEFBE4CDFAE4CCF9A88222B800C1B9F6
:100883000059BA002DEC8BF084CFCECDFCE5F0CB34
:10089300F97818EF2FFFEE33FEED33FDEC33FCEB6D
:1008A30033FB10D703994004EB99FB0FD8E5E4F928
:1008B300FA227818EF2FFFEE33FEED33FDEC33FC15
:1008C300C933C910D7059BE99A4007EC9BFCE99A09
:1008D300F90FD8E0E4C9FAE4CCFB2275F010EF2F4E
:1008E300FFEE33FEED33FDCC33CCC833C810D7074E
:1008F3009BEC9AE899400AED9BFDEC9AFCE899F889
:0E0903000FD5F0DAE4CDFBE4CCFAE4C8F9221B
:1026B300C2D5E830E70FB2D5E4C39BFBE49AFAE452
:1026C30099F9E498F8EC30E717B2D51226E9120825
:1026D3007FE4C39BFBE49AFAE499F9E498F8800356
:1026E30012087F30D50DE4C39FFFE49EFEE49DFDF9
:0426F300E49CFC2245
:10091100E8600FECC313FCED13FDEE13FEEF13FFC4
:03092100D8F122E8
:10092400E86010ECA2E713FCED13FDEE13FEEF13E9
:04093400FFD8F022D6
:10093800E493FC740193FD740293FE740393FF2205
:0C094800ECF0A3EDF0A3EEF0A3EFF02222
:0C095400A42582F582E5F03583F58322AE
:060960008A838982E47322
:1025D900AC1AAD1BAE1CAF1D7810EC4D4E4F7004FC
:1025E9007CA57DA5C3EC13FCED13FDEE13FEEF13E3
:1025F900FF5010EC64CCFCED644CFDEE644EFEEF34
:1026090064CEFFD8DF8C1A8D1B8E1C8F1DEE547F74
:0D261900FE228E1A8F1B74A5F51CF51D22E4
:10226500021EFEE493A3F8E493A34003F68001F273
:1022750008DFF48029E493A3F85407240CC8C3337A
:10228500C4540F4420C8834004F456800146F6DF49
:10229500E4800B01020408102040809015F2E47ED2
:1022A500019360BCA3FF543F30E509541FFEE4933E
:1022B500A360010ECF54C025E060A840B8E493A305
:1022C500FAE493A3F8E493A3C8C582C8CAC583CA30
:1022D500F0A3C8C582C8CAC583CADFE9DEE780BEE8
:01174B00009D
:00000001FF
