:101FEC0000A8C0003F065B4F666D7D077F6F000841
:041FFC0040017638F2
:100F10000729C06030180C060302330003013200B9
:100F20000135030136040137010138020139050199
:0A0F30003A06062203CF0601000076
:082108008F993099FDC2992264
:101204007F04121B57BF011A753201E4F53EF53F06
:10121400F540F541F542FBFD7F03121F227F0302D7
:1012240012DA7F01121B57BF011A753201E4F53E31
:10123400F53FF540F541F542FBFD7F04121F227F87
:10124400040212DA7F05121B57BF0119753201E43B
:10125400F53EF53FF540F541F542FBFD7F01121FD8
:10126400227F0180717F02121B57BF011975320161
:10127400E4F53EF53FF540F541F542FBFD7F0212F2
:101284001F227F0280507F03121B57EF6401600E00
:10129400122110EF64016006122047BF0119753254
:1012A40001E4F53EF53FF540F541F542FBFD7F05D0
:1012B400121F227F05801FE4FF121CABBF011A75A9
:1012C4003201E4F53EF53FF540F541F542FBFD7F83
:0A12D40006121F227F0612210822D5
:1012DE00121F42121F7C121FD1121F5F783B7C001F
:1012EE007D007B007A0079227E007F061208D012E4
:1012FE001EDD7F2B122037121F027F98121DA77D35
:10130E0007E4FF1220E47F807E257D007C00121909
:10131E0098754000754100754200E4F543F544FBB5
:10132E007A0079307D01FC121E097B007A0079313A
:10133E007D011220FF853028753E0A753F0A7540E3
:10134E000A75410A75420A7B0A7D0A7F0A121F221C
:10135E00E4FF12212CE4F53EF53FF540F541F54250
:10136E00FBFDFF121F227BFF7A1279047F081218F1
:10137E002C7BFF7A1C796B7F0912182C7BFF7A1459
:10138E00796D7F0B12182C7BFF7A1379A87F0812C8
:0A139E00182C122132121D6980FB89
:101C6B00AF3012212CE5306407600BE53064036064
:101C7B0005E530B40111E5286530600B7D147C005F
:101C8B007FE87E031218A9E5307011E528653060F6
:101C9B000B7D647C007FC87E001218A9853028223A
:10146D00E531B4031A753201E4F53EF53FF540F56B
:10147D0041F542FBFD7F03121F227F03021520E57C
:10148D0031B40419753201E4F53EF53FF540F541EF
:10149D00F542FBFD7F04121F227F048076E531B4F7
:1014AD000119753201E4F53EF53FF540F541F54280
:1014BD00FBFD7F01121F227F018058E531B4021917
:1014CD00753201E4F53EF53FF540F541F542FBFD82
:1014DD007F02121F227F02803AE531B40519753261
:1014ED0001E4F53EF53FF540F541F542FBFD7F0585
:1014FD00121F227F05801CE531B4061A753201E4F6
:10150D00F53EF53FF540F541F542FBFD7F06121F17
:07151D00227F0612210822C3
:1013A8007F04121B57BF010E7F031221087B007AAE
:1013B8000079350214677F01121B57BF010F7B00AC
:1013C8007A0079367D01121D2A7F0480587F051224
:1013D8001B57BF010F7B007A0079377D01121D2A48
:1013E8007F0180417F02121B57BF010D7F0212212E
:1013F800087B007A00793880667F01121CABBF0138
:101408000F7B007A0079397D01121D2A7F0580152E
:10141800E4FF121CABBF01107B007A00793A7D0112
:10142800121D2A7F060221087F03121B57EF640151
:101438006010122110EF64016008122047EF640168
:101448007022E4F53EF53FF540F541F542FBFD7F9E
:1014580005121F227F051221087B007A0079397D49
:0514680001121D2A2203
:0920DB008B88898C88898F888923
:100F3A0052007A8686008686008686008686008625
:090F4A00860086860041006F0953
:03002B0002212689
:0621260053BCEFD20F32A2
:020B1100155479
:100B1300200F03020CBAC20F90006EE0B40900402C
:100B230003020C9C900B2EF8282873020B75020B02
:100B330049020B5B020B87020B49020B5B020B9E04
:100B4300020B49020B5BAFBDEFFEADBE7C00E42D93
:100B5300FFEC3E900070803CAFBDEFFEADBE7C006D
:100B6300E42DFFEC3E900072F0A3EFF0754D01020F
:100B73000CA2AFBDEFFEADBE7C00E42DFFEC3E90BA
:100B830000748010AFBDEFFEADBE7C00E42DFFEC22
:100B93003E900076F0A3EFF0020CA2AFBDEFFEADE6
:100BA300BE7C00E42DFFEC3E900078F0A3EFF090C4
:100BB3000078E0FEA3E07807CEC313CE13D8F9A8DC
:100BC30054F6C394065013A854E675F003A4247A8C
:100BD300F582E43400F583E014F090006FE014F044
:100BE3006003020CA27409F0A854E4F6A854E6FFCB
:100BF300C394064003020CA2EF75F003A4247AF514
:100C030082E43400F583E0C39480502AE6FF75F054
:100C130003A4247BF582E43400F583E0D39480407D
:100C230040EF75F003A4247CF582E43400F583746B
:100C330001F0F54E802BA854E6FF75F003A4247B46
:100C4300F582E43400F583E0C394805014EF75F02B
:100C530003A4247CF582E43400F5837402F0754E1A
:100C630001A854E6FF75F003A4247AF582E4340066
:100C7300F583E0FEEF75F003A4247BF582E43400F2
:100C8300F583EEF0E675F003A4247AF582E43400EC
:100C9300F5837486F006020BEF90006E74FFF090FC
:100CA300006EE0D39407400374FFF090006EE004FD
:070CB300F09020DB93F5BC7B
:030CBA00055422BC
:02206500155410
:09206700A854A64EE4F54EE6FF74
:03207000055422F2
:02207300155402
:09207500A854A64DE4F54DE6FF68
:03207E00055422E4
:101DA7008F9D75BC88439720D2AD90004574FFF096
:101DB700A3740BF0A37411F0A374FFF0A37420F0C5
:101DC700A37465F0A374FFF0A37420F0A37473F0F9
:011DD70022E9
:072118007B017A00797022BF
:101B5700C3EF64809480403BD3EF64809485503317
:101B6700EFFD3395E0FC90007C75F003ED120AFF62
:101B7700EC75F003A42583F583E0FE90007C75F0F7
:101B870003ED120AFFEC75F003A42583F583E4F057
:051B9700AF06227F03F0
:011B9C002226
:041E650015541554A7
:101E69001220EDA854A60608A607A854E6FE08E61F
:0F1E7900FF4E600BEF24FFFFEE34FFFE1220F64A
:051E8800055405542281
:101F020053B1EF43B21012213BE4F5D975DA49D24D
:101F1200DE90003F74FFF0A3741EF0A37465F022FC
:0818A9008E3B8F3C8C3D8D3E0F
:1018B1001220EDEF4E7066AF3EAE3D1220F6C3E54D
:1018C1003C940AE53B9400404BE47B18FAF9F8900C
:1018D1001FEC120AE3120A2AC006C007AE3BAF3C56
:1018E100AB07AA06E4F9F8D007D006120A2AAB071B
:1018F100AA06AFF9EFFEADE97C00E42DFFEC3ECF87
:101901002BCF3AAD07FCAF03AE02122026D2D8434B
:0F191100DA01800612213B53DAFE7F02227F03A8
:0119200022A4
:0C20B8001220EDEF4E7002FF227F01228B
:10111B00E4F5809000ACE0FFB40800505F90112F15
:10112B00F828287302114702114D0211530211596D
:10113B0002115F02116902117302117DC2A3C2A2D7
:10114B008016C2A3C2A2801AC2A3C2A2801EC2A3CF
:10115B00C2A28022C2A3D2A2C2A1C2A08020C2A3DB
:10116B00D2A2C2A1D2A08016C2A3D2A2D2A1C2A0E7
:10117B00800CC2A3D2A2D2A1D2A08002D2A3C3EF71
:10118B006480948850299000ACE0FF3395E0FE74A6
:10119B00A32FF58274003EF583E0FF3395E0FE74D8
:1011AB00F02FF582741F3EF583E493F580801E903B
:1011BB0000ACE0FFB408133395E0FE74A32FF58267
:1011CB0074003EF583E0F5808003E4F5809000A287
:1011DB00E0FF9000ACE004FEF0D3EF6480F8EE6427
:1011EB0080984014E0D36480948850047408F022F3
:0911FB009000A1E09000ACF0228C
:101FD100E4F5937594FF5395F043960F90002A749E
:0B1FE100FFF0A37411F0A3741BF022AA
:0920E4009000A1EFF0A3EDF02241
:101F22009000A3EFF0A3EDF0A3EBF0A3E53EF0A346
:101F3200E53FF0A3E540F0A3E541F0A3E542F0223E
:06212C009000ABEFF02271
:100F53000151004100C3004100C0054100C183416C
:030F630000C28346
:101B9D002092069000C1E014F09000C0E014F070A7
:101BAD00347405F0A3E0FFC39480500EA3E094803D
:101BBD004018A37401F0F55180109000C2E0C39459
:101BCD00805007A37402F07551019000C2EFF090A0
:051BDD0000C17483F05B
:011BE20022E0
:022081001554F4
:09208300A854A651E4F551E6FF52
:03208C00055422D6
:101F420090003674FFF0A37420F0A37481F0900027
:0D1F52003374FFF0A3741BF0A3749DF02204
:072110009000C3E0FFE4F0C2
:0121170022A5
:100F66000152004900AE9494009494009494004178
:030F760000AD1EAD
:020DED0015549B
:100DEF0020B2069000AEE014F020B3069000B1E000
:100DFF0014F02097069000B4E014F09000ADE014CA
:100E0F00F06003020F0D741EF0A854E4F6A854E628
:100E1F00FFC3648094834003020F0DEF3395E0FE10
:100E2F009000AE75F003EF120AFFEE75F003A425E4
:100E3F0083F583E0C3948050399000AF75F003EFD2
:100E4F00120AFFEE75F003A42583F583E0D3948097
:100E5F00405AE6FF3395E0FE9000B075F003EF12B5
:100E6F000AFFEE75F003A42583F5837401F0F552A4
:100E7F00803AA854E6FF3395E0FE9000AF75F0037B
:100E8F00EF120AFFEE75F003A42583F583E0C394F8
:100E9F008050199000B075F003EF120AFFEE75F055
:100EAF0003A42583F5837402F0755201A854E6FF5D
:100EBF00FD3395E0FC9000AE75F003ED120AFFECE8
:100ECF0075F003A42583F583E0FE9000AF75F00362
:100EDF00ED120AFFEC75F003A42583F583EEF0EF16
:100EEF003395E0FE9000AE75F003EF120AFFEE753A
:0E0EFF00F003A42583F5837494F006020E1C04
:030F0D0005542266
:02208F001554E6
:09209100A854A652E4F552E6FF42
:03209A00055422C8
:101F5F0090003074FFF0A37420F0A3748FF0900002
:0D1F6F002D74FFF0A3740DF0A374EDF022AB
:101CAB00EF600764016003BF0233EFFD3395E0FC87
:101CBB009000B075F003ED120AFFEC75F003A4254C
:101CCB0083F583E0FE9000B075F003ED120AFFEC94
:0F1CDB0075F003A42583F583E4F0AF06227F03A1
:011CEA0022D7
:100F79004100000A4100290A41006D0A040E0000DF
:100F890000000114004600670000FFFF8FFFC10D3C
:100F9900C105C108C101C10E60240005FF2141FF3F
:100FA9002141FF2141FF2141FF2141FF2141FF2132
:100FB90041FF2141FF2141FF2141FF2141FF214102
:100FC9006036002AFF2141FF2141FF2138FF2141DD
:100FD900FF2138FF2141FF2138FF2141FF2141FF36
:100FE9002141FF2138FF2138FF2138FF2138FF2116
:0A0FF90041FF2141FF2141FF21418A
:01214100227B
:032138007F002203
:101B1000438E805389F07BE07A2879017800901F0A
:101B2000EC120AE3121C27EFF404F58A7BE07A2812
:101B300079017800901FEC120AE3121C27C3E49F7E
:101B4000FFE49EFE74019DFDE49CFC7808120ACF20
:071B50008F8CD28CD2A92278
:03000B00021ABE18
:041ABE00C0E0C0D0F4
:101AC200D5080A75084C300D020514D20DA2037216
:101AD200045036150AE50A7030850C0AD207300A1E
:101AE20017E50D6007150D438F01801D538FFEC250
:101AF200B5D51615C20A8011050BE50BD394064025
:091B020008C203E5136002D206DB
:051B0B00D0D0D0E03253
:101A6B00300E47C20E901FEC120AE37810120ACF09
:101A7B008E4F8F50900003E0FEA3E0FFE4FCFD7B54
:101A8B0019FAF9F812099FC006C007AE4FAF50AB59
:101A9B0007AA06E4F9F8D007D006121C2778031220
:101AAB000ACF900065EEF0A3EFF0900065E0FEA387
:021ABB00E0FF4A
:011ABD002206
:0920ED00900067E0FEA3E0FF2271
:0920F600900067EEF0A3EFF02268
:1020260090006BEEF0A3EFF0900069ECF0A3EDF0FA
:012036002287
:03213B00C2B42209
:03003B000215DAD1
:1015DA00C0E0C083C082C0D075D000C004C005C0BE
:0315EA0006C00731
:1015ED0030DF04C2DF807D30DA04C2DA807630D994
:1015FD003DC2D9AFFBEFFEADEB7C00E42DFFEC3E21
:10160D0020000E900001F0A3EFF075DB11D20080E9
:10161D0053FE900001E0FCA3E0FDC3EF9DFFEE9CA7
:10162D00A3F0A3EFF075DB00C200D20E803630D8E8
:10163D0033C2D8900067E07002A3E06022B2B4908C
:10164D000069E0FEA3E0F5EAEEF5FAA3E0FEA3E003
:10165D00FF90006AE02FF0900069E03EF08005C237
:04166D00B453DAFE9A
:10167100D007D006D005D004D0D0D082D083D0E01E
:011681003236
:06213200121B10D2AF22C7
:1017A1003004047F0180027F00200A047E01800250
:1017B1007E00EE5F6074E515C3950950683002360E
:1017C100750D01E515131313541FAB17AA18A919A9
:1017D100F58275830012090FFFE515540704FEEF2A
:1017E100A806088002C333D8FC30D70575160380DC
:1017F1002F751601802AAB17AA18A91975F002E5F1
:1018010015A4F58285F08312090FF50DE51575F024
:1018110002A429F9EA35F0FA90000112090FF51630
:0A1821000515D20A22C204438F10FD
:01182B00229A
:10102E00900000E014F0701F740AF0D205900029B1
:10103E00E014F07012740AF0D20890006DE014F013
:10104E007005740AF0D20190002AA3E0FAA3E0F929
:10105E00120B0B90002DA3E0FAA3E0F9120B0B90EC
:10106E000039A3E0FAA3E0F9120B0B900045A3E0C0
:10107E00FAA3E0F9120B0B900054A3E0FAA3E0F9E7
:10108E00120B0B90005DA3E0FAA3E0F9120B0B908C
:10109E00004BA3E0FAA3E0F9120B0BEF600C9000EB
:1010AE001DA3E0FAA3E0F9120B0B90004EA3E0FA99
:1010BE00A3E0F9120B0BEF600E900020A3E0FAA351
:1010CE00E0F9120B0BD20BE512D394004016D51299
:1010DE003030090C900023A3E0FAA3E0F9120B0BB9
:1010EE00D20C801D900051A3E0FAA3E0F9120B0B75
:1010FE00EF600E900023A3E0FAA3E0F9120B0BD2DF
:0D110E000C900005A3E0FAA3E0F9020B0B22
:1016820090003FA3E0FAA3E0F9120B0B900042A3F3
:10169200E0FAA3E0F9120B0B900033A3E0FAA3E007
:1016A200F9120B0B900008A3E0FAA3E0F9120B0B5E
:1016B200900030A3E0FAA3E0F9120B0BEF600C905C
:1016C2000011A3E0FAA3E0F9120B0B900036A3E09D
:1016D200FAA3E0F9120B0BEF600C900017A3E0FAEB
:1016E200A3E0F9120B0B900048A3E0FAA3E0F91271
:1016F2000B0BEF600C90001AA3E0FAA3E0F9120BB7
:101702000B30060EC206900026A3E0FAA3E0F912FF
:031712000B0B229C
:101CEB0090000BA3E0FAA3E0F9120B0B90003CA3BE
:101CFB00E0FAA3E0F9120B0BEF600C900014A3E0D9
:101D0B00FAA3E0F9120B0B900057A3E0FAA3E0F94A
:0F1D1B00120B0B90005AA3E0FAA3E0F9020B0B96
:101E3A00AF11AE10AD0FAC0E900060120AF3900015
:101E4A0064E514F0E4F511F510F50FF50EF51490AC
:0B1E5A00000EA3E0FAA3E0F9020B0B5E
:101D6900300705C2071217A1300D05C20D12102E3A
:101D7900300505C205121682300805C208121CEB8F
:101D8900300105C201121E3AE5112401F511E435AD
:0E1D990010F510E4350FF50FE4350EF50E22AF
:10182C008B3B8A3C893DEFB40C00507090183FF80C
:10183C0028287302186302186802186D02187202C5
:10184C00187702187C02188102188602188B02186D
:10185C009002189502189A90000580359000088027
:10186C003090000B802B90000E8026900011802170
:10187C00900017801C900014801790001A80129012
:10188C00001D800D900020800890002380039000A4
:0D189C0026E53BF0A3E53CF0A3E53DF0227E
:07211F007B017A00796022C8
:071003000153004100C4008D
:0D20AB0020A4097553019000C47401F022B7
:02209D001554D8
:09209F00A854A653E4F553E6FF32
:0320A800055422BA
:101F7C0090003C74FFF0A37420F0A3749DF09000CB
:0D1F8C003974FFF0A37420F0A374ABF022B1
:0220470015542E
:0A2049009000C4E0A854F6FFE4F094
:032053000554220F
:0B100A004800B7D4111A50400288A51E
:092000007F03122009D2C57F0301
:0A200900AE071FEE60030080F7220F
:10201300D2A7122000C2A77F03122009C2C57F03E3
:032023000220098F
:0C20C400C2A7122000D2A77F030220094F
:101F9900E4FFD2C530A709EFC394FA50030F80F4C8
:0C1FA9007F03122009C2C57F030220093B
:021E8D00AD079F
:101E8F00E4FBC2C57F03122009ED3392A7ED25E0D5
:101E9F00FD1220000BBB08EAC2C57F03122009D236
:061EAF00C57F03022009BB
:021BE300155497
:101BE5009000BFE0640170371220137F20121E8D14
:101BF500121F99A854E4F6A854E6FFC39408501799
:101C050074B72FF582E43400F583E0FF121E8D12C0
:0F1C15001F99A8540680E01220C4E49000BFF08D
:031C240005542242
:101A0F009000B9E025E025E0FFA3E0C413135403D1
:101A1F002F2466F548E43403F5479000BEE0540FD9
:101A2F00F5499000BCE0543FFF5403FEBE0305751B
:101A3F004AFF8003E4F54AEF540CFEBE0C05754BCC
:101A4F00FF8003E4F54BEF5430FFBF3005754CFFBB
:0B1A5F008003E4F54C7B007A0079471F
:011A6A002259
:10152400D3E5429438E541940450047F0180027F5E
:1015340000C3E5429466E541940340047E018002C1
:101544007E00EE5F6030121A0F1209746542700457
:10155400E5F065416020E542249AFD1313543F9061
:1015640000B9F0ED5403FFC4333354C04410A3F066
:101574009000BF7401F0121A0FE92402F9E43AFA58
:101584001208F6654360047F0180027F00E543D3BF
:10159400940F50047E0180027E00EE5F6011E543EB
:1015A400540FFF9000BEE054F04FF0A37401F07D9F
:1015B4002AE5446003430501E5456003430504E56A
:1015C4004660034305109000BCE06D6008EDF090A8
:0515D40000BF7401F0EE
:0115D90022EF
:101EDD0078417C007D007B007A00793B7E007F0697
:101EED001208D012152490005774FFF0A3741BF044
:051EFD00A374E3F022D4
:1020370053B1DF43B220C2B5C20A8F0C438F1022BF
:030053000219216E
:10192100C0E0C083C082C0D075D000C000C001C07B
:0319310002C003EE
:10193400200313D203751B08751300751A00E50CF8
:10194400C313F50A803AE50BC394014031E51A2527
:10195400E0F51AE50BC394034002051AD51B21E5F3
:1019640013C3951C501A751B08AB1DAA1EA91F850D
:101974001382758300E51A12093C05138002C20321
:03198400750B00E0
:10198700D003D002D001D000D0D0D082D083D0E015
:01199700321D
:0920FF008B1D8A1E891F8D1C2215
:03213E00AF1322BA
:101DD8002003047F0180027F00200A047E01800224
:101DE8007E00EE5F60188B178A188919EDC313F50A
:101DF80009C202E4F515538FEFD2047F02227F0354
:011E080022B7
:101D2A002003047F0180027F00200A047E018002D2
:101D3A007E00EE5F6026538FEF750D10751608D280
:101D4A000A438F018B178A188919ED75F008A404C4
:0F1D5A00F509D202E4F515D2047F02227F03229D
:101FB5002003047F0180027F00200A047E01800245
:0C1FC5007E00EE5F60037F00227F01229F
:1010150055008C00000000000000000000000000EA
:081025000000010000000000C2
:03002300020CBD0F
:100CBD00C0E0C0F0C083C082C0D075D000C000C0FD
:100CCD0001C002C003C004C005C006C00730993B77
:100CDD00C299900091E0FEA3E0FFC3900090E09FC9
:100CED0090008FE09E501F90008CE0FBA3E0FAA3D4
:100CFD00E0F9A3E475F00112095E85F082F5831227
:100D0D00090FF5998005900093E4F0209803020DEA
:100D1D00D2C298300B09C20B900099E4F0A3F09069
:100D2D000097E0FEA3E0FFA3E0FCA3E0FDC39FEC72
:100D3D009E5077900094E0FBA3E0FAA3E0F98D823A
:100D4D008C83E59912093C90009FE0FEA3E0FFC360
:100D5D00ED9FEC9E5046900097E0FCA3E0FDEF9DCB
:100D6D00EE9C503890009CE0FBA3E0FAA3E0F990D4
:100D7D000099E0FEA3E0FFF5828E8312090FFD902E
:100D8D000094E0FBA3E0FAA3E0F98F828E831209B1
:100D9D000F6D600890009974FFF0A3F090009AE039
:100DAD0004F07006900099E004F0900097E0FEA327
:100DBD00E0FFC390009AE09F900099E09E4006905E
:100DCD00009B7401F0D007D006D005D004D003D01D
:100DDD0002D001D000D0D0D082D083D0F0D0E0327C
:0220560015541F
:0A20580090009BE0A854F6FFE4F0AE
:0320620005542200
:101998008F3E8E3D8D3C8C3B759850438E40538EC8
:1019A800FE53890FE47B04FAF9F8901FEC120AE35E
:1019B800120A2AAB3EAA3DA93CA83B120A2AEFF418
:1019C80004F58BE47B04FAF9F8901FEC120AE31291
:1019D8000A2AAB3EAA3DA93CA83B120A2AC3E49FA7
:1019E800FFE49EFE74019DFDE49CFC7808120ABC8D
:1019F8008F8DC2ABD28ED2AC90004E74FFF0A37420
:071A080020F0A37456F02248
:101E0900900094EBF0A3EAF0A3E9F0A3ECF0A3EDC2
:101E1900F090009FE543F0A3E544F090009CE54075
:101E2900F0A3E541F0A3E542F0D20BE490009BF06A
:011E39002286
:101EB500900093E0701F90008CEBF0A3EAF0A3E98B
:101EC500F0E4A3F0A3F0A3ECF0A3EDF0A37401F00C
:081ED500D2997F02227F032253
:0B20D000900093E07002FF227F0122CD
:03000000021715CF
:0C171500787FE4F6D8FD75815402175C63
:10080000E709F608DFFA8046E709F208DFFA803EDA
:1008100088828C83E709F0A3DFFA8032E309F608C7
:10082000DFFA8078E309F208DFFA807088828C832F
:10083000E309F0A3DFFA806489828A83E0A3F608E3
:10084000DFFA805889828A83E0A3F208DFFA804CBD
:1008500080D280FA80C680D4806980F28033801094
:1008600080A680EA809A80A880DA80E280CA8033FD
:1008700089828A83ECFAE493A3C8C582C8CCC58375
:10088000CCF0A3C8C582C8CCC583CCDFE9DEE78045
:100890000D89828A83E493A3F608DFF9ECFAA9F0C4
:1008A000EDFB2289828A83ECFAE0A3C8C582C8CC1A
:1008B000C583CCF0A3C8C582C8CCC583CCDFEADE33
:1008C000E880DB89828A83E493A3F208DFF980CC95
:1008D00088F0EF60010E4E60C388F0ED2402B4048E
:1008E0000050B9F582EB2402B4040050AF23234535
:0608F00082239008507302
:1008F600BB010689828A83E0225002E722BBFE0200
:09090600E32289828A83E4932232
:10090F00BB010CE58229F582E5833AF583E022509D
:10091F0006E92582F8E622BBFE06E92582F8E222E7
:0D092F00E58229F582E5833AF583E4932201
:10093C00F8BB010DE58229F582E5833AF583E8F0F1
:10094C00225006E92582C8F622BBFE05E92582C89D
:02095C00F22285
:10095E00A3F8E0C5F025F0F0E5821582700215834C
:06096E00E0C838F0E822A9
:10097400BB010A89828A83E0F5F0A3E0225006874E
:10098400F009E71922BBFE07E3F5F009E319228910
:0B099400828A83E493F5F07401932243
:10099F00E88FF0A4CC8BF0A42CFCE98EF0A42CFCF7
:1009AF008AF0EDA42CFCEA8EF0A4CDA8F08BF0A475
:1009BF002DCC3825F0FDE98FF0A42CCD35F0FCEBD4
:1009CF008EF0A4FEA9F0EB8FF0A4CFC5F02ECD3999
:0F09DF00FEE43CFCEAA42DCE35F0FDE43CFC2206
:1009EE0075F008758200EF2FFFEE33FECD33CDCCC0
:1009FE0033CCC58233C5829BED9AEC99E582984043
:100A0E000CF582EE9BFEED9AFDEC99FC0FD5F0D61F
:100A1E00E4CEFBE4CDFAE4CCF9A88222B800C1B949
:100A2E000059BA002DEC8BF084CFCECDFCE5F0CB87
:100A3E00F97818EF2FFFEE33FEED33FDEC33FCEBC0
:100A4E0033FB10D703994004EB99FB0FD8E5E4F97B
:100A5E00FA227818EF2FFFEE33FEED33FDEC33FC68
:100A6E00C933C910D7059BE99A4007EC9BFCE99A5C
:100A7E00F90FD8E0E4C9FAE4CCFB2275F010EF2FA1
:100A8E00FFEE33FEED33FDCC33CCC833C810D707A1
:100A9E009BEC9AE899400AED9BFDEC9AFCE899F8DC
:0E0AAE000FD5F0DAE4CDFBE4CCFAE4C8F9226F
:101C2700C2D5E830E70FB2D5E4C39BFBE49AFAE4E8
:101C370099F9E498F8EC30E717B2D5121C5D120A4F
:101C47002AE4C39BFBE49AFAE499F9E498F8800341
:101C5700120A2A30D50DE4C39FFFE49EFEE49DFDE2
:041C6700E49CFC22DB
:100ABC00E8600FECC313FCED13FDEE13FEEF13FF18
:030ACC00D8F1223C
:100ACF00E86010ECA2E713FCED13FDEE13FEEF133D
:040ADF00FFD8F0222A
:100AE300E493FC740193FD740293FE740393FF2259
:0C0AF300ECF0A3EDF0A3EEF0A3EFF02276
:0C0AFF00A42582F582E5F03583F5832202
:060B0B008A838982E47375
:101721000212DEE493A3F8E493A34003F68001F2EE
:1017310008DFF48029E493A3F85407240CC8C333C9
:10174100C4540F4420C8834004F456800146F6DF98
:10175100E4800B0102040810204080900F10E47E09
:10176100019360BCA3FF543F30E509541FFEE4938D
:10177100A360010ECF54C025E060A840B8E493A354
:10178100FAE493A3F8E493A3C8C582C8CAC583CA7F
:10179100F0A3C8C582C8CAC583CADFE9DEE780BE37
:01102D0000C2
:00000001FF
