:100B9C0000A8C0003F065B4F666D7D077F6F0008A5
:100BAC004001414876384000BF86DBCFE6EDFD873B
:100BBC00FFEF543E397900EF00C500AF00A000965E
:100BCC00008E00870081007C007800740071006D3D
:100BDC00006B0068006500630061005F005D005BF6
:100BEC00005A005800560055005400520051005055
:100BFC00004E004D004C004B004A00490048004795
:100C0C0000460045004400430043004200410040C0
:100C1C00003F003F003E003D003D003C003B003AE1
:100C2C00003A0039003900380037003700360036FA
:100C3C000035003400340033003300320032003110
:100C4C00003100300030002F002F002E002E002D20
:100C5C00002D002C002C002B002B002A002A002930
:100C6C00002900290028002800270027002600263C
:100C7C000026002500250024002400240023002346
:100C8C000022002200220021002100200020002050
:100C9C00001F001F001F001E001E001D001D001D58
:100CAC00001C001C001C001B001B001B001A001A5F
:100CBC00001A001900190018001800180017001766
:100CCC00001700160016001600150015001500146C
:100CDC000014001400130013001300120012001271
:100CEC0000110011001000100010000F000F000F79
:100CFC00000E000E000E000D000D000D000C000C7F
:100D0C00000C000B000B000B000A000A0009000984
:100D1C00000900080008000800070007000700068B
:100D2C000006000500050036000400030003000364
:100D3C000002000200010001000100000000FFFFA2
:100D4C00FFFFFFFFFFFEFFFEFFFDFFFDFFFCFFFCB3
:100D5C00FFFBFFFBFFFAFFFAFFF9FFF9FFF8FFF8C3
:100D6C00FFF7FFF7FFF6FFF6FFF5FFF5FFF4FFF3D4
:100D7C00FFF3FFF2FFF2FFF1FFF0FFF0FFEFFFEEEA
:100D8C00FFEDFFEDFFECFFEBFFEAFFE9FFE8FFE70C
:100D9C00FFE6FFE5FFE4FFE3FFE2FFE0FFDFFFDD3F
:100DAC00FFDCFFDAFFD8FFD5FFD2FFCEFFC9FFC1B2
:020DBC000169CB
:100F6A0002480003014700014A03014B04014C01F6
:100F7A00014D0201500501510602360000044100EC
:100F8A0000000002390000024E0000023B0000028D
:100F9A00280000023F0000023D0000062203CF069F
:030FAA0001000043
:082536008F993099FDC2992232
:1015A7007F04121F99BF011A754701E4F555F556D7
:1015B700F557F558F559FBFD7F031223647F0302A6
:1015C700167D7F01121F99BF011A754701E4F55572
:1015D700F556F557F558F559FBFD7F041223647F3F
:1015E7000402167D7F05121F99BF0119754701E493
:1015F700F555F556F557F558F559FBFD7F011223BB
:10160700647F0180717F02121F99BF01197547011D
:10161700E4F555F556F557F558F559FBFD7F0212D8
:1016270023647F0280507F03121F99EF6401600ECD
:1016370012253EEF64016006122475BF0119754734
:1016470001E4F555F556F557F558F559FBFD7F05B6
:101657001223647F05801FE4FF1220EDBF011A7576
:101667004701E4F555F556F557F558F559FBFD7F54
:0A167700061223647F0612253622B6
:101752001223841223BE1224131223A178527C0076
:101762007D007B007A0079227E007F061208D0126B
:10177200231F7F2B1224651223447F981221E97DB7
:1017820007E4FF1225127F807E257D007C00121D5A
:10179200DA755700755800755900E4F55AF55BFB88
:1017A2007A0079457D01FC12224B7B007A00794652
:1017B2007D0112252D854538E4FF12255A75550CF9
:1017C2007556207557057558217559217B1F7D1E49
:1017D2007F101223647BFF7A1579A77F08121C6E93
:1017E2007BFF7A2079AD7F09121C6E7BFF7A187914
:1017F200217F0B121C6E7BFF7A1479CA7F08121CA0
:101802006E7BFF7A167981E4FF121C6E7BFF7A1AD7
:0F18120079C97F03121C6E1225601221AB80FB77
:1020AD00AF4512255AE5456407600BE545640360AD
:1020BD0005E545B40111E5386545600B7D147C00DF
:1020CD007FE87E03121CEBE5457011E53865456030
:1020DD000B7D647C007FC87E00121CEB8545382289
:10182100E546B4031A754701E4F555F556F557F544
:1018310058F559FBFD7F031223647F030218D4E599
:1018410046B40419754701E4F555F556F557F558B1
:10185100F559FBFD7F041223647F048076E546B4CD
:101861000119754701E4F555F556F557F558F55940
:10187100FBFD7F011223647F018058E546B4021904
:10188100754701E4F555F556F557F558F559FBFD42
:101891007F021223647F02803AE546B40519754739
:1018A10001E4F555F556F557F558F559FBFD7F055A
:1018B1001223647F05801CE546B4061A754701E4CE
:1018C100F555F556F557F558F559FBFD7F061223E9
:0718D100647F061225362298
:1014CA007F04121F99BF01177F031225367B007A0A
:1014DA0000794A7D0112216C753D00753E03227F19
:1014EA0001121F99BF01177B007A00794B7D011207
:1014FA00216C7F04122536753D00753E04227F0556
:10150A00121F99BF01177B007A00794C7D011221C5
:10151A006C7F01122536753D00753E01227F02124D
:10152A001F99BF01177F021225367B007A00794D79
:10153A007D0112216C753D00753E0222E4FF1220E6
:10154A00EDBF01167B007A0079517D0112216C757D
:10155A003D00753E067F060225367F03121F99EF6E
:10156A006401601012253EEF64016008122475EFD1
:10157A0064017028E4F555F556F557F558F559FB09
:10158A00FD7F05122364753D00753E057F05122512
:0D159A00367B007A0079507D0112216C2211
:10168100054FE54F7002054E64C8454E7072E54E38
:10169100C313FEE54F13FFEF2544FFEE3543FEE490
:1016A1003542FDE43541FCC006C007AE4EAF4FAB3D
:1016B10007AA06E4F9F8D007D006120AB58E398FC9
:1016C1003AE53A25E0FFE53933FE74C02FF582741F
:1016D1000B3EF583E493F53B740193F53CC3E53B85
:1016E100648094805008752A00752B0C8005E4F500
:1016F1002AF52BE4F544F543F542F541F54EF54F56
:10170100122546782C7C007D007E007F0A1208D0CD
:10171100853036853137E537AE367802CEC313CE04
:1017210013D8F9F53A8E39FFE4FCFDE5442FF54471
:10173100E5433EF543ED3542F542EC3541F5418552
:101741003228853329E540453F7005AF29122536FA
:011751002275
:101AC9007F011220EDBF010EE5406402453F60062B
:101AD900753F00754002E5406402453F7057AE28E6
:101AE900AF29FC7D6412095EAA07C002AE28AF299E
:101AF9007C007D0A12095E7C007D0A12095EAA0536
:101B0900AE3BAF3C7C007D0A1209B38F58AE28AFBB
:101B1900297C007D0A12095EAB05E4F555853E5620
:101B2900852B57AE3BAF3CFC7D0A1209B38D59ADED
:101B390002D007801575550C7556207557057558CF
:0E1B4900217559217B1F7D1E7F1012236422FF
:092509008B88898C88898F8889F0
:100FAD0052007A86860086860086860086860086B2
:090FBD00860086860041006F09E0
:03002B0002255457
:0625540053BCEFD20F3270
:020DBE00156BB3
:100DC000200F03020F67C20F90006EE0B4090040CD
:100DD00003020F49900DDBF8282873020E22020D42
:100DE000F6020E08020E34020DF6020E08020E4B39
:100DF000020DF6020E08AFBDEFFEADBE7C00E42D85
:100E0000FFEC3E900070803CAFBDEFFEADBE7C00BD
:100E1000E42DFFEC3E900072F0A3EFF07564010248
:100E20000F4FAFBDEFFEADBE7C00E42DFFEC3E905A
:100E300000748010AFBDEFFEADBE7C00E42DFFEC72
:100E40003E900076F0A3EFF0020F4FAFBDEFFEAD86
:100E5000BE7C00E42DFFEC3E900078F0A3EFF09014
:100E60000078E0FEA3E07807CEC313CE13D8F9A82C
:100E70006BF6C394065013A86BE675F003A4247AAE
:100E8000F582E43400F583E014F090006FE014F094
:100E90006003020F4F7409F0A86BE4F6A86BE6FF3D
:100EA000C394064003020F4FEF75F003A4247AF5B4
:100EB00082E43400F583E0C39480502AE6FF75F0A5
:100EC00003A4247BF582E43400F583E0D3948040CE
:100ED00040EF75F003A4247CF582E43400F58374BC
:100EE00001F0F565802BA86BE6FF75F003A4247B69
:100EF000F582E43400F583E0C394805014EF75F07C
:100F000003A4247CF582E43400F5837402F0756553
:100F100001A86BE6FF75F003A4247AF582E434009F
:100F2000F583E0FEEF75F003A4247BF582E4340042
:100F3000F583EEF0E675F003A4247AF582E434003C
:100F4000F5837486F006020E9C90006E74FFF0909C
:100F5000006EE0D39407400374FFF090006EE0044D
:070F6000F090250993F5BC98
:030F6700056B22F5
:02249300156BC7
:09249500A86BA665E4F565E6FFFD
:03249E00056B22A9
:0224A100156BB9
:0924A300A86BA664E4F564E6FFF1
:0324AC00056B229B
:1021E9008F9D75BC88439720D2AD90004574FFF050
:1021F900A3740DF0A374BEF0A374FFF0A37424F0CC
:10220900A37493F0A374FFF0A37424F0A374A1F052
:0122190022A2
:072546007B017A007970228D
:101F9900C3EF64809480403BD3EF648094855033D1
:101FA900EFFD3395E0FC90007C75F003ED120B8A90
:101FB900EC75F003A42583F583E0FE90007C75F0B1
:101FC90003ED120B8AEC75F003A42583F583E4F085
:051FD900AF06227F03AA
:011FDE0022E0
:0422A700156B156B33
:1022AB0012251BA86BA60608A607A86BE6FE08E678
:0F22BB00FF4E600BEF24FFFFEE34FFFE122524D1
:0522CA00056B056B220D
:1023440053B1EF43B210122569E4F5D975DA49D2D5
:10235400DE90003F74FFF0A37422F0A374A7F02270
:081CEB008E528F538C548D556D
:101CF30012251BEF4E7066AF55AE54122524C3E573
:101D030053940AE5529400404BE47B18FAF9F89097
:101D13000B9C120B6E120AB5C006C007AE52AF532E
:101D2300AB07AA06E4F9F8D007D006120AB5AB0749
:101D3300AA06AFF9EFFEADE97C00E42DFFEC3ECF40
:101D43002BCF3AAD07FCAF03AE02122454D2D843D3
:0F1D5300DA01800612256953DAFE7F02227F0330
:011D6200225E
:0C24E60012251BEF4E7002FF227F012226
:1013E100E4F5809000ACE0FFB40800505F9013F585
:1013F100F828287302140D02141302141902141F81
:1014010002142502142F021439021443C2A3C2A2EA
:101411008016C2A3C2A2801AC2A3C2A2801EC2A306
:10142100C2A28022C2A3D2A2C2A1C2A08020C2A312
:10143100D2A2C2A1D2A08016C2A3D2A2D2A1C2A01E
:10144100800CC2A3D2A2D2A1D2A08002D2A3C3EFA8
:101451006480948850299000ACE0FF3395E0FE74DD
:10146100A32FF58274003EF583E0FF3395E0FE740F
:10147100A02FF582740B3EF583E493F580801E90D6
:1014810000ACE0FFB408133395E0FE74A32FF5829E
:1014910074003EF583E0F5808003E4F5809000A2BE
:1014A100E0FF9000ACE004FEF0D3EF6480F8EE645E
:1014B10080984014E0D36480948850047408F0222A
:0914C1009000A1E09000ACF022C3
:10241300E4F5937594FF5395F043960F90002A7457
:0B242300FFF0A37413F0A374E1F0229B
:092512009000A1EFF0A3EDF0220E
:102364009000A3EFF0A3EDF0A3EBF0A3E555F0A3E9
:10237400E556F0A3E557F0A3E558F0A3E559F0229C
:06255A009000ABEFF0223F
:100FC6000168004100C3004100C0054100C18341E2
:030FD60000C283D3
:101FDF002092069000C1E014F09000C0E014F07061
:101FEF00347405F0A3E0FFC39480500EA3E09480F7
:101FFF004018A37401F0F56880109000C2E0C394FC
:10200F00805007A37402F07568019000C2EFF09042
:05201F0000C17483F014
:012024002299
:0224AF00156BAB
:0924B100A86BA668E4F568E6FFDB
:0324BA00056B228D
:1023840090003674FFF0A37424F0A374AFF09000AF
:0D2394003374FFF0A3741FF0A374DFF02278
:07253E009000C3E0FFE4F090
:012545002273
:100FD9000169004900AE94940094940094940041EE
:030FE90000AD1E3A
:0211D100156B9C
:1011D30020B2069000AEE014F020B3069000B1E018
:1011E30014F02097069000B4E014F09000ADE014E2
:1011F300F060030212F1741EF0A86BE4F6A86BE62C
:10120300FFC36480948340030212F1EF3395E0FE41
:101213009000AE75F003EF120B8AEE75F003A42570
:1012230083F583E0C3948050399000AF75F003EFEA
:10123300120B8AEE75F003A42583F583E0D3948023
:10124300405AE6FF3395E0FE9000B075F003EF12CD
:101253000B8AEE75F003A42583F5837401F0F56919
:10126300803AA86BE6FF3395E0FE9000AF75F0037C
:10127300EF120B8AEE75F003A42583F583E0C39484
:101283008050199000B075F003EF120B8AEE75F0E1
:1012930003A42583F5837402F0756901A86BE6FF47
:1012A300FD3395E0FC9000AE75F003ED120B8AEC74
:1012B30075F003A42583F583E0FE9000AF75F0037A
:1012C300ED120B8AEC75F003A42583F583EEF0EFA2
:1012D3003395E0FE9000AE75F003EF120B8AEE75C6
:0E12E300F003A42583F5837494F00602120034
:0312F100056B2268
:0224BD00156B9D
:0924BF00A86BA669E4F569E6FFCB
:0324C800056B227F
:1023A10090003074FFF0A37424F0A374BDF090008A
:0D23B1002D74FFF0A37411F0A374D1F0227D
:1020ED00EF600764016003BF0233EFFD3395E0FC41
:1020FD009000B075F003ED120B8AEC75F003A4257A
:10210D0083F583E0FE9000B075F003ED120B8AECC1
:0F211D0075F003A42583F583E4F0AF06227F035A
:01212C002290
:100FEC004100000A4100290A41006D0A040E00006C
:100FFC0000000114004600670000FFFF8FFFC10DC9
:10100C00C105C108C101C10E60240005FF256FFF99
:10101C00256FFF256FFF256FFF256FFF256FFF25C0
:10102C006FFF256FFF256FFF256FFF256FFF256F66
:10103C006036002AFF256FFF256FFF2566FF256FA1
:10104C00FF2566FF256FFF2566FF256FFF256FFFC8
:10105C00256FFF2566FF2566FF2566FF2566FF25A4
:0A106C006FFF256FFF256FFF256F52
:01256F002249
:032566007F0022D1
:101F5200438E805389F07BE07A2879017800900BD8
:101F62009C120B6E122069EFF404F58A7BE07A284A
:101F720079017800900B9C120B6E122069C3E49FCA
:101F8200FFE49EFE74019DFDE49CFC7808120B5A4E
:071F92008F8CD28CD2A92232
:03000B00021F00D1
:041F0000C0E0C0D0AD
:101F0400D5080A75084C300D020514D20DA20372CF
:101F1400045036150AE50A7030850C0AD207300AD7
:101F240017E50D6007150D438F01801D538FFEC209
:101F3400B5D51615C20A8011050BE50BD3940640DE
:091F440008C203E5136002D20695
:051F4D00D0D0D0E0320D
:101EAD00300E47C20E900B9C120B6E7810120B5A0F
:101EBD008E668F67900003E0FEA3E0FFE4FCFD7BE0
:101ECD0019FAF9F8120A2AC006C007AE66AF67AB59
:101EDD0007AA06E4F9F8D007D00612206978031294
:101EED000B5A900065EEF0A3EFF0900065E0FEA3B5
:021EFD00E0FF04
:011EFF0022C0
:09251B00900067E0FEA3E0FF223E
:09252400900067EEF0A3EFF02235
:1024540090006BEEF0A3EFF0900069ECF0A3EDF0C8
:012464002255
:03256900C2B422D7
:03003B0002198E19
:10198E00C0E0C083C082C0D075D000C004C005C006
:03199E0006C00779
:1019A10030DF04C2DF807D30DA04C2DA807630D9DC
:1019B1003DC2D9AFFBEFFEADEB7C00E42DFFEC3E69
:1019C10020000E900001F0A3EFF075DB11D2008032
:1019D10053FE900001E0FCA3E0FDC3EF9DFFEE9CF0
:1019E100A3F0A3EFF075DB00C200D20E803630D831
:1019F10033C2D8900067E07002A3E06022B2B490D5
:101A01000069E0FEA3E0F5EAEEF5FAA3E0FEA3E04B
:101A1100FF90006AE02FF0900069E03EF08005C27F
:041A2100B453DAFEE2
:101A2500D007D006D005D004D0D0D082D083D0E066
:011A3500327E
:06256000121F52D2AF224F
:101BE3003004047F0180027F00200A047E0180020A
:101BF3007E00EE5F6074E515C395095068300236C8
:101C0300750D01E515131313541FAB17AA18A91962
:101C1300F58275830012090FFFE515540704FEEFE3
:101C2300A806088002C333D8FC30D7057516038095
:101C33002F751601802AAB17AA18A91975F002E5AA
:101C430015A4F58285F08312090FF50DE51575F0DE
:101C530002A429F9EA35F0FA90000112090FF516EA
:0A1C63000515D20A22C204438F10B7
:011C6D002254
:1012F400900000E014F0701F740AF0D205900029E9
:10130400E014F07012740AF0D20890006DE014F04A
:101314007005740AF0D20190002AA3E0FAA3E0F960
:10132400120B9690002DA3E0FAA3E0F9120B96900D
:101334000039A3E0FAA3E0F9120B96900045A3E06C
:10134400FAA3E0F9120B96900054A3E0FAA3E0F993
:10135400120B9690005DA3E0FAA3E0F9120B9690AD
:10136400004BA3E0FAA3E0F9120B96EF600C900097
:101374001DA3E0FAA3E0F9120B9690004EA3E0FA45
:10138400A3E0F9120B96EF600E900020A3E0FAA3FD
:10139400E0F9120B96D20BE512D394004016D51245
:1013A4003030090C900023A3E0FAA3E0F9120B9665
:1013B400D20C801D900051A3E0FAA3E0F9120B9621
:1013C400EF600E900023A3E0FAA3E0F9120B96D28B
:0D13D4000C900005A3E0FAA3E0F9020B96CF
:101A360090003FA3E0FAA3E0F9120B96900042A3B0
:101A4600E0FAA3E0F9120B96900033A3E0FAA3E0C4
:101A5600F9120B96900008A3E0FAA3E0F9120B9690
:101A6600900030A3E0FAA3E0F9120B96EF600C9019
:101A76000011A3E0FAA3E0F9120B96900036A3E05A
:101A8600FAA3E0F9120B96EF600C900017A3E0FAA8
:101A9600A3E0F9120B96900048A3E0FAA3E0F9122E
:101AA6000B96EF600C90001AA3E0FAA3E0F9120B74
:101AB6009630060EC206900026A3E0FAA3E0F912BD
:031AC6000B96225A
:10212D0090000BA3E0FAA3E0F9120B9690003CA3EC
:10213D00E0FAA3E0F9120B96EF600C900014A3E007
:10214D00FAA3E0F9120B96900057A3E0FAA3E0F979
:0F215D00120B9690005AA3E0FAA3E0F9020B963A
:10227C00AF11AE10AD0FAC0E900060120B7E900043
:10228C0064E514F0E4F511F510F50FF50EF5149066
:0B229C00000EA3E0FAA3E0F9020B968D
:1021AB00300705C207121BE3300D05C20D1212F4E6
:1021BB00300505C205121A36300805C20812212D4A
:1021CB00300105C20112227CE5112401F511E43521
:0E21DB0010F510E4350FF50FE4350EF50E2269
:101C6E008B528A538954EFB40C005070901C81F83B
:101C7E00282873021CA5021CAA021CAF021CB40267
:101C8E001CB9021CBE021CC3021CC8021CCD021CC5
:101C9E00D2021CD7021CDC90000580359000088013
:101CAE003090000B802B90000E802690001180212A
:101CBE00900017801C900014801790001A801290CC
:101CCE00001D800D9000208008900023800390005E
:0D1CDE0026E552F0A3E553F0A3E554F022F3
:07254D007B017A0079602296
:07107600016A004100C40003
:0D24D90020A409756A019000C47401F0226E
:0224CB00156B8F
:0924CD00A86BA66AE4F56AE6FFBB
:0324D600056B2271
:1023BE0090003C74FFF0A37424F0A374CBF0900053
:0D23CE003974FFF0A37424F0A374D9F02239
:02247500156BE5
:0A2477009000C4E0A86BF6FFE4F04B
:03248100056B22C6
:0B107D004800B7D4111A50400288A5AB
:09242E007F03122437D2C57F039D
:0A243700AE071FEE60030080F722DD
:10244100D2A712242EC2A77F03122437C2C57F034D
:032451000224372B
:0C24F200C2A712242ED2A77F03022437B9
:1023DB00E4FFD2C530A709EFC394FA50030F80F482
:0C23EB007F03122437C2C57F0302243791
:0222CF00AD0759
:1022D100E4FBC2C57F03122437ED3392A7ED25E05D
:1022E100FD12242E0BBB08EAC2C57F03122437D28C
:0622F100C57F0302243743
:02202500156B39
:102027009000BFE0640170371224417F201222CF55
:102037001223DBA86BE4F6A86BE6FFC394085017DE
:1020470074B72FF582E43400F583E0FF1222CF1234
:0F20570023DBA86B0680E01224F2E49000BFF0B8
:03206600056B22E5
:101E51009000B9E025E025E0FFA3E0C4131354038B
:101E61002F2466F55FE43403F55E9000BEE0540F65
:101E7100F5609000BCE0543FFF5403FEBE030575BE
:101E810061FF8003E4F561EF540CFEBE0C05756241
:101E9100FF8003E4F562EF5430FFBF30057563FF47
:0B1EA1008003E4F5637B007A00795EAB
:011EAC002213
:1018D800D3E5599438E558940450047F0180027F79
:1018E80000C3E5599466E558940340047E018002DC
:1018F8007E00EE5F6030121E511209FF65597004B8
:10190800E5F065586020E559249AFD1313543F907B
:1019180000B9F0ED5403FFC4333354C04410A3F0AE
:101928009000BF7401F0121E51E92402F9E43AFA5A
:101938001208F6655A60047F0180027F00E55AD3D9
:10194800940F50047E0180027E00EE5F6011E55A1C
:10195800540FFF9000BEE054F04FF0A37401F07DE7
:101968002AE55B6003430501E55C6003430504E584
:101978005D60034305109000BCE06D6008EDF090D9
:0519880000BF7401F036
:01198D002237
:10231F0078587C007D007B007A0079527E007F0622
:10232F001208D01218D890005774FFF0A37420F041
:05233F00A37425F0224B
:1024650053B1DF43B220C2B5C20A8F0C438F10228D
:03005300021D6328
:101D6300C0E0C083C082C0D075D000C000C001C035
:031D730002C003A8
:101D7600200313D203751B08751300751A00E50CB2
:101D8600C313F50A803AE50BC394014031E51A25E1
:101D9600E0F51AE50BC394034002051AD51B21E5AD
:101DA60013C3951C501A751B08AB1DAA1EA91F85C7
:101DB6001382758300E51A12093C05138002C203DB
:031DC600750B009A
:101DC900D003D002D001D000D0D0D082D083D0E0CF
:011DD90032D7
:09252D008B1D8A1E891F8D1C22E2
:03256C00AF132288
:10221A002003047F0180027F00200A047E018002DD
:10222A007E00EE5F60188B178A188919EDC313F5C3
:10223A0009C202E4F515538FEFD2047F02227F030D
:01224A002271
:10216C002003047F0180027F00200A047E0180028C
:10217C007E00EE5F6026538FEF750D10751608D23A
:10218C000A438F018B178A188919ED75F008A4047E
:0F219C00F509D202E4F515D2047F02227F032257
:1023F7002003047F0180027F00200A047E018002FF
:0C2407007E00EE5F60037F00227F012258
:1010880055008C0000000000000000000000000077
:0810980000000100000000004F
:030023000210A127
:1010A100C0E0C0F0C083C082C0D075D000C000C015
:1010B10001C002C003C004C005C006C00730993B8F
:1010C100C299900091E0FEA3E0FFC3900090E09FE1
:1010D10090008FE09E501F90008CE0FBA3E0FAA3EC
:1010E100E0F9A3E475F0011209E985F082F58312B4
:1010F100090FF5998005900093E4F02098030211FF
:10110100B6C298300B09C20B900099E4F0A3F0909D
:101111000097E0FEA3E0FFA3E0FCA3E0FDC39FEC8A
:101121009E5077900094E0FBA3E0FAA3E0F98D8252
:101131008C83E59912093C90009FE0FEA3E0FFC378
:10114100ED9FEC9E5046900097E0FCA3E0FDEF9DE3
:10115100EE9C503890009CE0FBA3E0FAA3E0F990EC
:101161000099E0FEA3E0FFF5828E8312090FFD9046
:101171000094E0FBA3E0FAA3E0F98F828E831209C9
:101181000F6D600890009974FFF0A3F090009AE051
:1011910004F07006900099E004F0900097E0FEA33F
:1011A100E0FFC390009AE09F900099E09E40069076
:1011B100009B7401F0D007D006D005D004D003D035
:1011C10002D001D000D0D0D082D083D0F0D0E03294
:02248400156BD6
:0A24860090009BE0A86BF6FFE4F065
:03249000056B22B7
:101DDA008F558E548D538C52759850438E40538E26
:101DEA00FE53890FE47B04FAF9F8900B9C120B6EF0
:101DFA00120AB5AB55AA54A953A852120AB5EFF460
:101E0A0004F58BE47B04FAF9F8900B9C120B6E1222
:101E1A000AB5AB55AA54A953A852120AB5C3E49FEE
:101E2A00FFE49EFE74019DFDE49CFC7808120B47BA
:101E3A008F8DC2ABD28ED2AC90004E74FFF0A374D9
:071E4A0024F0A37484F022D0
:10224B00900094EBF0A3EAF0A3E9F0A3ECF0A3ED7C
:10225B00F090009FE55AF0A3E55BF090009CE557EA
:10226B00F0A3E558F0A3E559F0D20BE490009BF0F6
:01227B002240
:1022F700900093E0701F90008CEBF0A3EAF0A3E945
:10230700F0E4A3F0A3F0A3ECF0A3EDF0A37401F0C5
:08231700D2997F02227F03220C
:0B24FE00900093E07002FF227F01229B
:03000000021B5789
:0C1B5700787FE4F6D8FD75816B021B9EC0
:10080000E709F608DFFA8046E709F208DFFA803EDA
:1008100088828C83E709F0A3DFFA8032E309F608C7
:10082000DFFA8078E309F208DFFA807088828C832F
:10083000E309F0A3DFFA806489828A83E0A3F608E3
:10084000DFFA805889828A83E0A3F208DFFA804CBD
:1008500080D280FA80C680D4806980F28033801094
:1008600080A680EA809A80A880DA80E280CA8033FD
:1008700089828A83ECFAE493A3C8C582C8CCC58375
:10088000CCF0A3C8C582C8CCC583CCDFE9DEE78045
:100890000D89828A83E493A3F608DFF9ECFAA9F0C4
:1008A000EDFB2289828A83ECFAE0A3C8C582C8CC1A
:1008B000C583CCF0A3C8C582C8CCC583CCDFEADE33
:1008C000E880DB89828A83E493A3F208DFF980CC95
:1008D00088F0EF60010E4E60C388F0ED2402B4048E
:1008E0000050B9F582EB2402B4040050AF23234535
:0608F00082239008507302
:1008F600BB010689828A83E0225002E722BBFE0200
:09090600E32289828A83E4932232
:10090F00BB010CE58229F582E5833AF583E022509D
:10091F0006E92582F8E622BBFE06E92582F8E222E7
:0D092F00E58229F582E5833AF583E4932201
:10093C00F8BB010DE58229F582E5833AF583E8F0F1
:10094C00225006E92582C8F622BBFE05E92582C89D
:02095C00F22285
:10095E00BC000BBE0029EF8DF084FFADF022E4CC7D
:10096E00F875F008EF2FFFEE33FEEC33FCEE9DEC46
:10097E00984005FCEE9DFE0FD5F0E9E4CEFD22ED8C
:10098E00F8F5F0EE8420D21CFEADF075F008EF2FD6
:10099E00FFED33FD4007985006D5F0F222C398FDC7
:0509AE000FD5F0EA2264
:1009B300C2D5EC30E709B2D5E4C39DFDE49CFCEE5F
:1009C30030E715B2D5E4C39FFFE49EFE12095EC370
:1009D300E49DFDE49CFC800312095E30D507C3E46B
:0609E3009FFFE49EFE22CE
:1009E900A3F8E0C5F025F0F0E582158270021583C1
:0609F900E0C838F0E8221E
:1009FF00BB010A89828A83E0F5F0A3E022500687C3
:100A0F00F009E71922BBFE07E3F5F009E319228984
:0B0A1F00828A83E493F5F074019322B7
:100A2A00E88FF0A4CC8BF0A42CFCE98EF0A42CFC6B
:100A3A008AF0EDA42CFCEA8EF0A4CDA8F08BF0A4E9
:100A4A002DCC3825F0FDE98FF0A42CCD35F0FCEB48
:100A5A008EF0A4FEA9F0EB8FF0A4CFC5F02ECD390D
:0F0A6A00FEE43CFCEAA42DCE35F0FDE43CFC227A
:100A790075F008758200EF2FFFEE33FECD33CDCC34
:100A890033CCC58233C5829BED9AEC99E5829840B7
:100A99000CF582EE9BFEED9AFDEC99FC0FD5F0D694
:100AA900E4CEFBE4CDFAE4CCF9A88222B800C1B9BE
:100AB9000059BA002DEC8BF084CFCECDFCE5F0CBFC
:100AC900F97818EF2FFFEE33FEED33FDEC33FCEB35
:100AD90033FB10D703994004EB99FB0FD8E5E4F9F0
:100AE900FA227818EF2FFFEE33FEED33FDEC33FCDD
:100AF900C933C910D7059BE99A4007EC9BFCE99AD1
:100B0900F90FD8E0E4C9FAE4CCFB2275F010EF2F15
:100B1900FFEE33FEED33FDCC33CCC833C810D70715
:100B29009BEC9AE899400AED9BFDEC9AFCE899F850
:0E0B39000FD5F0DAE4CDFBE4CCFAE4C8F922E3
:10206900C2D5E830E70FB2D5E4C39BFBE49AFAE4A2
:1020790099F9E498F8EC30E717B2D512209F120AC3
:10208900B5E4C39BFBE49AFAE499F9E498F8800370
:10209900120AB530D50DE4C39FFFE49EFEE49DFD11
:0420A900E49CFC2295
:100B4700E8600FECC313FCED13FDEE13FEEF13FF8C
:030B5700D8F122B0
:100B5A00E86010ECA2E713FCED13FDEE13FEEF13B1
:040B6A00FFD8F0229E
:100B6E00E493FC740193FD740293FE740393FF22CD
:0C0B7E00ECF0A3EDF0A3EEF0A3EFF022EA
:0C0B8A00A42582F582E5F03583F5832276
:060B96008A838982E473EA
:101B6300021752E493A3F8E493A34003F68001F22F
:101B730008DFF48029E493A3F85407240CC8C33383
:101B8300C4540F4420C8834004F456800146F6DF52
:101B9300E4800B0102040810204080900F6AE47E69
:101BA300019360BCA3FF543F30E509541FFEE49347
:101BB300A360010ECF54C025E060A840B8E493A30E
:101BC300FAE493A3F8E493A3C8C582C8CAC583CA39
:101BD300F0A3C8C582C8CAC583CADFE9DEE780BEF1
:0110A000004F
:00000001FF
